:100000000C9462000C948A000C948A000C948A0070
:100010000C948A000C948A000C948A000C948A0038
:100020000C948A000C948A000C948A000C948A0028
:100030000C948A000C948A000C948A000C948A0018
:100040000C94E4020C948A000C94D7010C94B10136
:100050000C948A000C948A000C948A000C948A00F8
:100060000C948A000C948A000000000025002800EF
:100070002B000000000023002600290000000008DB
:10008000000201000003040700000000000000005F
:1000900000000000240027002A00010204081020AC
:1000A000408001020408102001020408102004040A
:1000B0000404040404040202020202020303030310
:1000C00003032F1611241FBECFEFD8E0DEBFCDBF34
:1000D00011E0A0E0B1E0E8E5FDE202C005900D927C
:1000E000A63AB107D9F726E0A6EAB1E001C01D9211
:1000F000AD33B207E1F710E0C2E6D0E004C02197CB
:10010000FE010E948416C136D107C9F70E94930AE6
:100110000C94AA160C940000FC01918D828D981706
:1001200061F0828DDF01A80FB11D5D968C91928DDB
:100130009F5F9F73928F90E008958FEF9FEF0895D8
:10014000FC01918D828D981731F0828DE80FF11DA1
:10015000858D90E008958FEF9FEF0895FC01918DBC
:10016000228D892F90E0805C9F4F821B91098F73B5
:10017000992708958AEB91E00E94AE0021E0892B37
:1001800009F420E0822F0895FC01848DDF01A80F7F
:10019000B11DA35ABF4F2C91848D90E001968F73AF
:1001A0009927848FA689B7892C93A089B1898C91CE
:1001B00080648C93938D848D981306C00288F38994
:1001C000E02D80818F7D80830895EF92FF920F93C1
:1001D0001F93CF93DF93EC0181E0888F9B8D8C8DF3
:1001E000981305C0E889F989808185FD24C0F62E21
:1001F0000B8D10E00F5F1F4F0F731127E02E8C8DBA
:10020000E8120CC00FB607FCFACFE889F9898081A3
:1002100085FFF5CFCE010E94C400F1CF8B8DFE018A
:10022000E80FF11DE35AFF4FF0820B8FEA89FB893B
:100230008081806207C0EE89FF896083E889F9893F
:1002400080818064808381E090E0DF91CF911F9175
:100250000F91FF90EF900895CF93DF93EC01888D7D
:100260008823C9F0EA89FB89808185FD05C0A889BA
:10027000B9898C9186FD0FC00FB607FCF5CF808140
:1002800085FFF2CFA889B9898C9185FFEDCFCE018A
:100290000E94C400E7CFDF91CF91089580E090E005
:1002A000892B29F00E94BA0081110C940000089556
:1002B000833081F028F4813099F08230A1F00895E4
:1002C0008730A9F08830B9F08430D1F48091800073
:1002D0008F7D03C0809180008F7780938000089588
:1002E00084B58F7702C084B58F7D84BD08958091D9
:1002F000B0008F7703C08091B0008F7D8093B000F5
:1003000008953FB7F8948091A9059091AA05A0910E
:10031000AB05B091AC0526B5A89B05C02F3F19F0E1
:100320000196A11DB11D3FBFBA2FA92F982F882775
:10033000820F911DA11DB11DBC01CD0142E0660FD0
:10034000771F881F991F4A95D1F708952A9A089513
:100350002A9808958EBD00000DB407FEFDCF8EB51E
:1003600008951F920F920FB60F9211242F933F936F
:100370004F935F936F937F938F939F93AF93BF93AD
:10038000EF93FF938AEB91E00E94C400FF91EF91FD
:10039000BF91AF919F918F917F916F915F914F919D
:1003A0003F912F910F900FBE0F901F9018951F92A5
:1003B0000F920FB60F9211242F938F939F93EF9369
:1003C000FF93E091CA01F091CB018081E091D001CF
:1003D000F091D10182FD12C090818091D3018F5F95
:1003E0008F732091D401821751F0E091D301F0E096
:1003F000E654FE4F958F8093D30101C08081FF9119
:10040000EF919F918F912F910F900FBE0F901F90A2
:100410001895CF93DF93282F30E0F901E458FF4F70
:100420008491F901E656FF4FD491F901E255FF4F4F
:10043000C491CC2391F081110E945801EC2FF0E07F
:10044000EE0FFF1FEE58FF4FA591B491EC91ED23F5
:1004500081E090E021F480E002C080E090E0DF9154
:10046000CF9108951F93CF93DF93282F30E0F901A8
:10047000E458FF4F8491F901E656FF4FD491F901FA
:10048000E255FF4FC491CC23C9F0162F81110E9471
:100490005801EC2FF0E0EE0FFF1FE859FF4FA59138
:1004A000B4918FB7F894111105C09C91ED2FE09590
:1004B000E92302C0EC91ED2BEC938FBFDF91CF913C
:1004C0001F910895CF93DF9390E0FC01E656FF4F14
:1004D0002491FC01E255FF4F8491882361F190E063
:1004E000880F991FFC01E057FF4FC591D491FC0183
:1004F000E859FF4FA591B491611109C09FB7F894D5
:100500008881209582238883EC912E230BC0623052
:1005100061F49FB7F8943881822F80958323888374
:10052000EC912E2B2C939FBF06C08FB7F894E881D7
:100530002E2B28838FBFDF91CF9108958F929F92AA
:10054000AF92BF92CF92DF92EF92FF926B017C014C
:100550000E9481014B015C01C114D104E104F1044A
:10056000F1F00E948101DC01CB0188199909AA09E7
:10057000BB09883E9340A105B10570F321E0C21A82
:10058000D108E108F10888EE880E83E0981EA11CCE
:10059000B11CC114D104E104F10419F7DDCFFF90BF
:1005A000EF90DF90CF90BF90AF909F908F90089585
:1005B0002FB7F8946091A5057091A6058091A705C5
:1005C0009091A8052FBF08951F920F920FB60F921A
:1005D00011242F933F938F939F93AF93BF93809159
:1005E000A5059091A605A091A705B091A805309109
:1005F000A40523E0230F2D3720F40196A11DB11D82
:1006000005C026E8230F0296A11DB11D2093A40565
:100610008093A5059093A605A093A705B093A80580
:100620008091A9059091AA05A091AB05B091AC0568
:100630000196A11DB11D8093A9059093AA05A093D1
:10064000AB05B093AC05BF91AF919F918F913F9156
:100650002F910F900FBE0F901F9018958091570209
:10066000882319F081508093570208959C01A2E8D5
:10067000B1E0E8E7F1E090E04D915D919F5F4217B6
:10068000530738F0408151814217530710F4892FE6
:1006900008953296953081F780E00895EF92FF92A9
:1006A0000F931F93CF93DF93EC017B018A010E948C
:1006B0003603F801808390E00197FC01EE0FFF1FE5
:1006C000E456FE4F20813181232BB1F026E0289F94
:1006D000F001299FF00D1124E355FA4F208131815B
:1006E0002C273D274281538124233523232B21F4BA
:1006F000F701D183C08361C026E0289FF001299FC4
:10070000F00D1124E355FA4F82819381009761F037
:100710008C239D239C012160E70139832883ECE62B
:10072000F2E020E030E008C0CE018827F8CF2F5F4C
:100730003F4F2A30310531F0419151914817590707
:10074000B1F738C00097B9F0209180023091810252
:100750002817390781F42AE030E0220F331FF9010E
:10076000E85AFD4F80819181F701918380830E9437
:100770003603E8018883A6EAB1E0E0E02D913D91DF
:10078000E701888199812115310531F02817390752
:1007900019F0EF5FEA3091F7F0E0EE0FFF1FEA5536
:1007A000FE4F208131812817390739F4F701118272
:1007B000108203C0892B89F6DECFDF91CF911F9184
:1007C0000F91FF90EF900895CF92DF92EF92FF92FA
:1007D0000F931F93CF93DF93EC017A018B016C0190
:1007E000C40ED51ECC15DD05B9F0F8940E94A80101
:1007F0008FE00E94AA018D2F0E94AA018C2F0E94D7
:10080000AA01219680E00E94AA01F80181938F013C
:100810000E94A6017894E6CFC701DF91CF911F9186
:100820000F91FF90EF90DF90CF9008951F93CF939B
:10083000DF931F92CDB7DEB7182FF89499830E94EB
:10084000A8018FE00E94AA019981892F0E94AA0124
:10085000812F0E94AA0180E00E94AA0189830E9440
:10086000A601789489810F90DF91CF911F9108950F
:10087000CF92DF92EF92FF920F931F93CF93DF936C
:10088000EC017A018B016C01C40ED51ECC15DD057F
:10089000B1F0F8940E94A80180EF0E94AA018D2F68
:1008A0000E94AA018C2F0E94AA012196F801819131
:1008B0008F010E94AA010E94A6017894E7CFC70188
:1008C000DF91CF911F910F91FF90EF90DF90CF902C
:1008D0000895CF93DF93CDB7DEB72A970FB6F8947C
:1008E000DEBF0FBECDBF89879A87E3EDF5E0238198
:1008F000280F3281390F41815081548345833683DB
:1009000027838F8398878F5F8E839D838BE68C836D
:1009100089E48B8386EA8A838AE1898346E050E012
:10092000BE016F5F7F4F89E090E00E94380444E091
:1009300050E067ED75E08FE090E00E94380444E0FD
:1009400050E06FED75E081E090E00E94380444E0F3
:1009500050E06BED75E085E090E00E9438040E9465
:100960008A0A2A960FB6F894DEBF0FBECDBFDF917C
:10097000CF9108950F931F93CF93DF93C0E0D0E002
:1009800086E295E00E941604082F10E087E295E0C9
:100990000E941604102F0027082B0115110569F07D
:1009A00086E295E00E941604C82FD0E087E295E029
:1009B0000E941604DC2FCC27C82BC017D10701F7E3
:1009C000C0938402C850C733F0F1109284020E9491
:1009D0006A0A83E095E00E9416048111FACF0E9412
:1009E000730A80919B0590919C05A0919D05B09103
:1009F0009E050196A11DB11D80939B0590939C05BA
:100A0000A0939D05B0939E05C0E080919B059091B9
:100A10009C05A0919D05B0919E0580389C4FAA40F1
:100A2000B105F0F010929B0510929C0510929D0567
:100A300010929E050E94E9088091AD059091AE0547
:100A40000E9469040DC081E08093870210929B058B
:100A500010929C0510929D0510929E05C1E0D5CF85
:100A60008C2FDF91CF911F910F9108951F93CF93FA
:100A7000DF9300D0CDB7DEB7182FF8946A8399833F
:100A80000E94A80180EF0E94AA019981892F0E94EB
:100A9000AA01812F0E94AA016A81862F0E94AA01C1
:100AA0000E94A601789481E00F900F90DF91CF9182
:100AB0001F910895E0911306F0911406848181112D
:100AC0000FC0858181110CC0868197819093140697
:100AD000809313061782168210929A051092990538
:100AE000E0911306F09114068481882361F081500F
:100AF00084830190F081E02D80919A0591E0980F18
:100B000090939A050EC08581882379F08150858362
:100B10000280F381E02D8091990591E0980F9093E8
:100B20009905E80FF11D8081089580E00895E09116
:100B30001306F091140680E0309741F025819481EE
:100B4000920F890F0680F781E02DF6CF08958091EE
:100B5000130690911406892B41F00E94970591E0AD
:100B6000811101C090E0892F08950895E091130646
:100B7000F09114061182108213821282148215825F
:100B8000178216820895909314068093130610928C
:100B90009A0510929905109298050895AF92BF9208
:100BA000CF92DF92EF92FF920F93CF93DF931F923A
:100BB000CDB7DEB75C018FE9C82E85E0D82E6093F3
:100BC0009F054093A0055093A1052093A205009393
:100BD000A3058BEC95E069830E94C3056981607968
:100BE000E0911306F0911406D182C082603151F475
:100BF000F382E28285E0848305831782168265E0B2
:100C0000600F08C01382128285E0848315821782E8
:100C1000168265E0C5010F90DF91CF910F91FF9093
:100C2000EF90DF90CF90BF90AF900C946D07EF9254
:100C3000FF920F931F93CF93DF9300D0CDB7DEB712
:100C40007C018A018BE096E02A8369830E94C305B8
:100C5000E0911306F091140611821082138302832F
:100C600014822A812583178216826981613061F49A
:100C7000622FC7010F900F90DF91CF911F910F91BD
:100C8000FF90EF900C947B0680E00F900F90DF9127
:100C9000CF911F910F91FF90EF900895CF92DF9227
:100CA000EF92FF920F931F93CF93DF936C017A0122
:100CB0008B01C0E0D0E0CE15DF0589F0D8016D9141
:100CC0008D01D601ED91FC910190F081E02DC601DE
:100CD0000995892B11F47E0102C02196ECCFC70142
:100CE000DF91CF911F910F91FF90EF90DF90CF9008
:100CF00008950E948A160F931F93CF93DF9300D01D
:100D000000D000D0CDB7DEB706EE10E08F3F2EEF5B
:100D1000920731F48FEF89838A838B838C8332C06F
:100D20009C013D7F2F3F3D4FA9F39C0121503B4A41
:100D30002E3F304178F39C012227232B91F0E1E0F4
:100D4000F6E020E030E0419151914817590709F44D
:100D50007EC02F5F3F4F25303105A9F70E94B605B1
:100D6000B0C09E838D839091D605890F8C839E8120
:100D70008091D505890F8B838091D4058A838091DA
:100D8000D30589836F5F60932B0683E296E00E9410
:100D9000C305E0911306F09114068BE296E091836F
:100DA00080831382128281E0848315828BE096E037
:100DB0009783868383E296E00E94C3050E9497058D
:100DC000998191110AC09A81911107C09B8191115B
:100DD00004C09C81992309F46EC00115110509F422
:100DE0006AC0882309F467C044E050E0BE016F5F29
:100DF0007F4F8CE095E00E943804612F80E195E000
:100E00000E943605602F81E195E00E94360560E082
:100E100070E083E296E00E94720980E290E00E9416
:100E20005E0A1FEF82E095E00E94160484FF26C050
:100E300083E095E00E941604813001F160E182E0D8
:100E400095E00E9436050E94B60581E03BC0F9019D
:100E5000EE0FFF1FEE0FFF1FE351FA4F80819181CC
:100E6000A281B38189839A83AB83BC83220F331F12
:100E7000F901ED51FA4F0081118184CF82E095E0B4
:100E80000E94160483FF06C068E182E095E00E949C
:100E9000360511C0112379F083E095E00E94160415
:100EA000813009F0BFCF115061E070E080E090E048
:100EB0000E949E02B7CF0E94B6050E946A0A0E9455
:100EC0008A0A80E026960FB6F894DEBF0FBECDBF2B
:100ED000DF91CF911F910F9108952F923F924F92E2
:100EE0005F926F927F928F929F92AF92BF92CF92BA
:100EF000DF92EF92FF920F931F93CF93DF9300D077
:100F000000D0CDB7DEB78C01262F6F3208F08CC031
:100F100081153FEF930709F487C09D7F8F3F9D4F59
:100F200009F085C0212EFCE9CF2EF1E0DF2EADEADD
:100F3000EA2EA5E0FA2E612C712CBBE1AB2EB6E0B7
:100F4000BB2E86E0582E560E95E1892E96E0992EFE
:100F500027E1322E36E0432E80912301813031F497
:100F60006CE271E080E090E00E949E02F6018191C7
:100F700091916F0193012F5F3F4F3901892B09F444
:100F800047C08091CB059091CC0590931C0680932F
:100F90001B068091CD059091CE0590931E068093FF
:100FA0001D068091CF0580931F068091D005809308
:100FB00020068091D1059091D205909322068093CE
:100FC00021065092150630921606009317062092BD
:100FD0001806F701908181819093190680931A0673
:100FE0008BE096E00E94C305E0911306F091140691
:100FF000918280821382128244821582B782A682F5
:10100000F1E06F16710421F4652DC8010E947B0682
:1010100026E0E20EF11C35E06316710409F09CCF66
:101020008BEC95E00E94C3050E94B605BAC0C801CA
:101030008150914F8F3F9B4008F06EC0612E8CE92C
:10104000C82E81E0D82E40E050E09BE1A92E96E02A
:10105000B92E36E0532E560E65E1862E66E0962EAA
:1010600077E1472E77247A94E6E03E2EF6018191CF
:1010700091916F019A012F5F3F4F7901892B09F4FC
:1010800045C08091CB059091CC0590931C06809330
:101090001B068091CD059091CE0590931E068093FE
:1010A0001D068091CF0580931F068091D005809307
:1010B00020068091D1059091D205909322068093CD
:1010C00021065092150640921606709217067092ED
:1010D00018060093190660921A068BE096E00E94AB
:1010E000C305E0911306F091140691828082138269
:1010F000128234821582B782A68231E0E316F104AF
:1011000029F4652D8FEF9FEF0E947B06A7014530E4
:10111000510509F0ABCF84CFAE014D5F5F4FBE01EB
:101120006F5F7F4FC8012C830E944E032C8166E0C5
:10113000620F6093150687E18093160600931706E9
:10114000109318068B8190E0019716E0189FF0012C
:10115000199FF00D1124E355FA4F908181819093EE
:10116000190680931A068BE096E06C830E94C305F3
:10117000E0911306F091140685E196E09183808357
:1011800013821282148315828BEC95E097838683F9
:101190008B816C81813029F489819A810E947B0640
:1011A00001C080E00F900F900F900F90DF91CF91D2
:1011B0001F910F91FF90EF90DF90CF90BF90AF9075
:1011C0009F908F907F906F905F904F903F902F9067
:1011D0000895CF936CE271E080E090E00E949E025F
:1011E000CFB7F89480913C06811127C0E8EBF0E07E
:1011F0008491E4EAF0E09491E82FF0E0EE0FFF1F15
:10120000E057FF4FA591B491EC91E92321F461E0FF
:101210008AE00E94320261E08AE00E9462028CB59C
:1012200080618CBD8CB580648CBD61E08DE00E94D6
:10123000620261E08BE00E94620280913C068F5F57
:1012400080933C06CFBF229A60E880E090E00E9445
:10125000360565E58BE190E00E94360565E58AE19B
:1012600090E00E94360580E090E490932D068093F4
:101270002C0680E090E6909335068093340680E05B
:1012800098E490932F0680932E0680E098E6909342
:1012900037068093360680E090E590933106809380
:1012A000300680E090E7909339068093380680E01E
:1012B00098E5909333068093320680E098E7909308
:1012C0003B0680933A06CF910895CF93C82F692F9C
:1012D00088E295E00E9436056C2F89E295E0CF9177
:1012E0000C9436058F929F92AF92BF92CF92DF926D
:1012F000EF92FF920F931F93CF93DF935C016B01EB
:1013000084E295E00E941604E82EF12C85E295E037
:101310000E941604DE2DCC27C82B4E0147E09422F4
:10132000E0902E06F0902F06E80CF91CC114D104B1
:1013300049F4C5010E94C3050E949705C82ED12C0F
:10134000C50102C080E090E09601280D391D2130D2
:10135000384008F44CC000E018E008191909892B3E
:1013600011F057011FC0A801B501C7010E94380440
:10137000A601401B510BB501600F711F80912E0615
:1013800090912F063BC00E94A705882389F00E94F8
:101390005A0545019FEF891A990A682FC5010E94D5
:1013A000360554018A2D8E1990E08017910758F365
:1013B000B0902E06EB2CF0902F06C601801B910BEF
:1013C0008C018E2D8B1990E08017910778F50E9483
:1013D000A705882359F10E945A0547019FEF891AF2
:1013E000990A682FC7010E9436057401EACF892B3C
:1013F00011F0870115C0A601B501C7010E9438048C
:1014000015C00E94A705882389F00E945A0558013B
:101410004FEFA41AB40A682FC8010E94360585014F
:10142000802F8E1990E08C159D0558F3CC0DDD1D95
:101430006D2F84E295E00E9436056C2F85E295E0E1
:10144000DF91CF911F910F91FF90EF90DF90CF90A0
:10145000BF90AF909F908F900C943605EF92FF92C3
:101460000F931F93CF93DF93FC01F77080913606A3
:10147000909137068E0F9F1F9F01240F351F21303B
:101480003840A0F08A017B0120E038E0E901CE1B62
:10149000DF0BAE010E94E403A8014C1B5D0BB701FA
:1014A0006C0F7D1F8091360690913706DF91CF91AA
:1014B0001F910F91FF90EF900C94E403682F81E04F
:1014C00095E00E94360581E095E00E9416048111A6
:1014D000FACF089580E190E00E945E0A6FEF82E00B
:1014E00095E00C9436050E946A0A62E080E095E07F
:1014F0000E94360560E084E095E00E94360566EEC5
:1015000085E095E00E94360581E090E00E945E0A49
:1015100081E0089583E095E00E941604811102C0E5
:101520000C94730A0895CF93DF93CDB7DEB72F974E
:101530000FB6F894DEBF0FBECDBF789484B582603D
:1015400084BD84B5816084BD85B5826085BD85B567
:10155000816085BD80916E00816080936E001092E5
:101560008100809181008260809381008091810060
:1015700081608093810080918000816080938000F1
:101580008091B10084608093B1008091B00081604F
:101590008093B00080917A00846080937A0080917B
:1015A0007A00826080937A0080917A0081608093D3
:1015B0007A0080917A00806880937A001092C1004E
:1015C000E091CA01F091CB0182E08083E091C601F5
:1015D000F091C7011082E091C801F091C9018FEC30
:1015E00080831092D201E091CE01F091CF0186E08C
:1015F0008083E091CC01F091CD0180818061808376
:10160000E091CC01F091CD01808188608083E091F0
:10161000CC01F091CD01808180688083E091CC0184
:10162000F091CD0180818F7D8083A2EDB2E0E7E76C
:10163000F4E08DE18E0F11921D928E13FCCFE5E93F
:10164000F4E0119225E0EC38F207D9F74AEE53E0C6
:1016500020EE33E086ED93E00EEF13E0E8E0F4E0F7
:1016600011921192DA011D921D92AD01D9011D92C4
:101670009D01DC011D92CD01D8011D928D01B4E0C8
:10168000EC31FB0769F72EE133E080EF92E069EA85
:1016900073E0EBE4F3E011921192D9011D929D01E8
:1016A000DC011D92CD01DB011D92BD01B3E0E53AE5
:1016B000FB0789F7AEEBB2E0EDEEF5E084E18E0FCB
:1016C00011921D928E13FCCF08E011E040E151E031
:1016D0008CE091E0A0E0CA2EA1E0DA2E24E031E017
:1016E000B801E4E1F1E0B4E0FB2EFE0EE190DB0195
:1016F000ED92BD01DA01ED90AD01D901ED929D01B0
:10170000DC01ED90CD01D601ED926D01FE12EECF20
:10171000E0901701F12C10920B01C7010E943603D3
:10172000813049F09091EF02911176C04DEA55E079
:10173000E9E8F2E01FC0E3EDF5E094E09E0FD80188
:101740002D918D0121939E13FACFABEDB5E0E4E02E
:10175000F1E09F012C5F91919D932E13FCCFAFED93
:10176000B5E0E0E0F1E09F012C5F91919D932E1395
:10177000FCCFD8CFDA0111961C921E9213961C92C0
:101780001E92129715961C921E9214979F0122503A
:101790003109D9011C922F5F3F4FD9011C92108251
:1017A0001482138216821582108617824A5F5F4F59
:1017B0003B96B2E0E03CFB07E9F6ECE6F2E028E518
:1017C00032E046EA51E011921192D9011D921D9228
:1017D0009D01DA011D921D92AD01B2E0E038FB07D8
:1017E00091F710922504109224041092270410926D
:1017F0002604109229041092280410922B041092AF
:101800002A0410922D0410922C048F870E94E9085C
:1018100091E09093EF028F85C82ED12CE1E0CE1A93
:10182000D10896E09C9D80019D9D100D11240355CB
:101830001A4FD801ED92FC92813039F4C7010E9411
:101840006904F8011382128207C080E09FEFD8017B
:1018500013969C938E93129786E08C9DF0018D9D3C
:10186000F00D1124E355FA4F1582148210920405ED
:101870001092050562E082E00E94620262E083E06D
:101880000E94620260E087E00E94620261E084E000
:101890000E94620261E085E00E94620261E086E0EF
:1018A0000E94620282E28093D40483E08093EC047D
:1018B00081E18093D60483E18093D70484E0809310
:1018C000BC0478EE872E73E0972EEFE62E2E312C97
:1018D000F9E04F2E512C89EA93E03DE2380F3C8726
:1018E0008EE595E03DE2380F3E870E94D8020091D8
:1018F0009405109195052091960530919705DC018E
:10190000CB01801B910BA20BB30B0B97A105B1056B
:1019100008F4E1C50E94D802609394057093950580
:10192000809396059093970580918C0590918D05F5
:101930000196B4010E945C1690938D0580938C05EE
:1019400065E070E00E945C16892B09F060C182E0BE
:101950000E940902892B59F480917904811109C0F0
:1019600081E08093790480E18093BC0402C01092EE
:10197000790483E00E940902892B59F480917A044A
:10198000811109C081E080937A0482E18093BC04D4
:1019900002C010927A0487E00E94090290917E04AE
:1019A000882339F09B7F71F482E08093BF0485E047
:1019B00007C0992311F0953029F484E08093BF0487
:1019C00080937E048091BC04883079F48091EC048B
:1019D000813011F0883011F482E005C0823011F0BE
:1019E0008031D1F781E08093BC049091BC048FEFEB
:1019F000890F823050F1903131F09231B1F0943052
:101A000009F05AC037C08091EC04833031F48091E2
:101A1000A404815C823028F42DC0883011F080321B
:101A200049F582E08093EC043EC08091EC04833061
:101A300031F48091A404815C823028F41BC0803191
:101A400011F08032B9F481E0EDCF8091EC04923056
:101A5000C1F4833031F48091A404815C823008F7B2
:101A60000BC08830F1F28032E1F2813029F482EC4F
:101A70008093A40483E0D6CF8091A404803C99F4A1
:101A8000D0CF833031F48091A404815C8230D8F6C9
:101A900006C08031C1F28032B1F2823041F38091D0
:101AA000A404803C81F28091A404815C823070F1B6
:101AB00082EB8093A40425C08091EC04943129F436
:101AC000823071F0883039F40BC0813031F480916C
:101AD000A404803AD9F488E012C0963109F446C5CE
:101AE000823031F48091A404803A81F480E107C00F
:101AF000833061F48091A404803A41F480E28093C1
:101B0000EC041092BC0481E0809322019091BE0409
:101B10002091EE04913350F081E0213009F480E00F
:101B200021E02093EE049093A60418C0943021F095
:101B30008091A604803349F481E0211101C080E046
:101B40001092EE041092A60409C0923061F481E074
:101B5000213009F480E091E09093EE041092BE04ED
:101B600081110EC010C0913071F4213019F410921F
:101B7000EE0404C0211102C09093EE041092BE0442
:101B800081E0809322018091BF04823051F481E092
:101B90009091EF04913009F480E091E09093EF048C
:101BA0000AC0843079F481E09091EF04911101C072
:101BB00080E01092EF041092BF04882319F081E0B6
:101BC000809322018091EE04813011F461E001C024
:101BD00060E086E00E9432028091EC04823011F4D1
:101BE00061E001C060E084E00E9432028091EC0478
:101BF000813011F461E001C060E085E00E943202B2
:101C00008091EF04813019F484E08093BC0420912A
:101C10008C0530918D05C90163E370E00E945C166C
:101C2000892B89F48091EC049FEF980F923010F487
:101C300092E005C090919404891719F094E0909374
:101C4000BE0480939404C901B1010E945C16892BE3
:101C500049F49091A4048FE5890F823218F49150D1
:101C60009093A404C90163E070E00E945C165C01DB
:101C7000892B09F035C380915E05811103C08FEF78
:101C800080935E0580916F04882329F081508093B2
:101C90006F04811104C00E94BA0480936F04809184
:101CA0006F04882309F496C280918702813009F07D
:101CB00042C2C0908402D12CC114D10409F439C2AB
:101CC00088E295E00E941604082F10E089E295E072
:101CD0000E941604102F0027082B80E095E00E9438
:101CE00016048770833009F43FC0843009F469C05A
:101CF000823009F095C048E050E0BE016F5F7F4F31
:101D0000C8010E942E0AC8010896298120938002EA
:101D10002A81209381022B81209382022C8120939F
:101D200083022D8130E0322F22274E81240F311D76
:101D30003093860220938502EF80F12CFE2CEE2456
:101D40002885E20EF11C8C010E0D1F1DCE14DF0440
:101D500008F05DC0A60161E374E00E942E0AA601AE
:101D60004E195F097A0158C046E050E0BE016F5F2E
:101D70007F4FC8010E942E0AC80106962981209330
:101D800080022A81209381022B81209382022C8160
:101D900020938302ED80F12CFE2CEE242E81E20EA6
:101DA000F11C8C010E0D1F1DCE14DF0480F5A60161
:101DB00061E374E00E942E0AB6016E197F097B016F
:101DC0002BC042E050E0BE016F5F7F4FC8010E9410
:101DD0002E0AC8010296EA80F12CA701425051094F
:101DE000E980F12C3E2D22277A01E20EF31E8C01B0
:101DF0000E0D1F1DCE14DF0450F4A60161E374E044
:101E00000E942E0AC6018E199F097C0105C0A701F8
:101E100061E374E00E942E0AC8010E94650902C0B5
:101E2000E12CF12C80E490E00E945E0AEF2809F496
:101E300080C12091360430913704C9018827019769
:101E40008F3F944608F042C0E1E0F6E080E0419127
:101E500051914217530769F0452B59F08F5F853038
:101E6000B1F780912E0490E0019665E070E00E9449
:101E7000701680932E0490E0FC01EE0FFF1FEF5FC1
:101E8000F94F408151814217530711F0318320836C
:101E9000FC01EE0FFF1FEE0FFF1FE351FA4F4091C1
:101EA000800250918102609182027091830240838E
:101EB000518362837383880F991FFC01ED51FA4FA0
:101EC00080918502909186029183808310913104E4
:101ED000115010932F04412F50E062E374E081E32E
:101EE00094E00E948F16112309F423C181E394E04A
:101EF0009093910280939002109131041093880284
:101F00008091320480938902C0903404D12CDC2C5F
:101F1000CC2480913304C82AD0928F02C0928E02C2
:101F2000E0903604F12CFE2CEE2480913504E82A52
:101F3000F0928D02E0928C02809183029091D605FE
:101F4000891B8983809182029091D505891B8A83A0
:101F500069807A8070928B0260928A0261147104A7
:101F600009F44FC06E147F0409F44BC0C7010E94EE
:101F70003603482F50E04150510996E0949FF001FC
:101F8000959FF00D1124E355FA4F22813381813062
:101F9000C1F12115310511F420E03FEF440F551F29
:101FA000FA01E456FE4F808191812E213F21892B39
:101FB00021F4ACE6B2E0FD010AC0C90181606816F7
:101FC0007906B9F71EC042E0E038F40731F081919C
:101FD000919182179307B9F714C0A5018D919D9136
:101FE0006FEFA61AB60A892BC1F7440F551FFA01E5
:101FF000E459FD4F31832083FA01E85AFD4F718285
:10200000608281E080933004109287028091AD0558
:102010009091AE058C159D05B9F07FEFC7167DEF49
:10202000D706E9F4C7018150914F8F3F9B4060F480
:10203000E4E2F4E081919191E816F90629F0B4E028
:10204000EE32FB07B9F777C0412F50E046505109F7
:1020500067E374E081E394E00E948F164DC0EFEFD8
:10206000CE16DE0639F0FFEFCF16FEEFDF0609F0E1
:1020700047C006C08FEF809333048EEF8093340403
:10208000E114F10449F4C7018150914F8F3F9B4007
:1020900038F5E4E2F4E01FC08CE9C82E81E0D82EC8
:1020A00080E0D6012D913D916D0101E0080F232BB9
:1020B00051F08D7F41F0212F41E354E0602F8FEFED
:1020C0009FEF0E941706802F053059F7DCCFB4E050
:1020D000EE32FB0781F181919191E816F906B9F78B
:1020E000412F50E04650510967E374E081E394E0EA
:1020F0000E948F16109188021650109388021CC0FF
:10210000AE01475F5F4FBE016F5F7F4FC6010E9408
:102110004E036985613079F0212F41E354E08981D4
:102120009A810E94170611E0811101C010E01195FB
:1021300003C01092870210E011501E3F08F04AC001
:102140008091300490E001972BE0289FF001299FB7
:10215000F00D1124E957FD4FC580D68081E394E04E
:102160009093760480937504109131041093700459
:10217000A0903304B12CBA2CAA2480913204A82A4E
:10218000B0927204A09271042091340420937304DD
:102190000091350400937404812F8079803151F4CB
:1021A000402F50E066E374E081E394E02F870E94C3
:1021B0008F162F85E4E2F1E0812F90E0419151915B
:1021C0004817590729F031E0E837F307B9F702C09B
:1021D0001111D0C180912201813009F081C000E04D
:1021E00010E0612C712CC12CD12C5601AA0CBB1C07
:1021F000F501E85FFB4F80819181009709F444C0AD
:1022000081157FEF970709F43FC0F601E250FC4FBC
:1022100020812530A9F4F601E052FC4F2081422FA5
:1022200050E0DA01AB56BB4F7D01F501E651FC4FA2
:1022300040815181F601EA52FC4F008165E111C0F5
:10224000213299F4F501E651FC4F40815181FCEEB9
:10225000EF2EF4E0FF2E08E1F601E052FC4F208162
:1022600061E30E94CE05082F10E00115110521F051
:10227000BFEFCB1ADB0A2BC0EFEF6E1A7E0AF4E039
:102280006F16710428F425C02FEFC21AD20A1FC09E
:10229000F501E85FFB4F808191810E943603A60122
:1022A0004F5F5F4F7A01813089F459E0C516D10440
:1022B00069F0A2014C195D09C701880F991FBC0183
:1022C000685F7B4F8A5F9B4F0E948F166701612C6E
:1022D000712C6AE0C616D10408F487CF109222014F
:1022E00080918C0590918D05B1010E945C16892B1F
:1022F00009F086C080911A01E82FF0E0E25AFA4F07
:102300009081911102C095E29083823020F08091FB
:102310001D0381110EC110911A011D3208F06DC00C
:10232000212F30E0A901440F551FFA01EB5FFA4F4E
:10233000808190E0982F8827FA01EC5FFA4F608146
:10234000862B009709F459C010921D03D901A25A97
:10235000BA4F6D01FA01E55BFC4F91838083F9016F
:10236000E051FD4F4081442311F04FEF4C93F901B0
:10237000E755FC4F5F01F901E25EFC4F208122230B
:1023800099F0D6018C91811102C082E006C08F3A8B
:1023900010F4805B01C08FEFD6018C93D6018C9135
:1023A000D5018C93108225C0F501208121111EC01A
:1023B000D6012C912D30B8F0E12CF12C08E127E565
:1023C00040E050E065E00E94CE05882341F0F60130
:1023D00080818C5080838FEFD5018C930AC085E279
:1023E000F501808306C0D6011C9203C02150F5017F
:1023F00020831F5F10931A0103C081E080931A01AC
:1024000080918C0590918D0563ED70E00E945C16C3
:10241000892B09F08BC030915702332309F486C011
:1024200020911901822F90E0880F991FFC01EB5F2A
:10243000FA4F4081FC01EC5FFA4F808190911801C6
:10244000992341F09150909318013D3281F090E032
:10245000942B1EC02F5F2093190110921D0410921F
:102460001C040E942E0380E2809318015FC081E06B
:102470008093190110921D0410921C040E942E03D7
:102480008091070590E0982F882720910605822BE0
:10249000009791F020911C0430911D04821793073E
:1024A00009F44BC0E12CF12C08E12FE340E050E0AF
:1024B00062E20E94CE053AC080915702882319F04B
:1024C0000E942E03F9CF81E08093190110921D0420
:1024D00010921C042BC00E94D8020091900510910C
:1024E00091052091920530919305DC01CB01801B71
:1024F000910BA20BB30B81319742A105B105B0F04E
:102500000E94D80260939005709391058093920584
:102510009093930580918E0590918F050196B4015B
:102520000E945C1690938F0580938E050E944E0149
:10253000DCC981E080931A01EECE809119018D32C1
:1025400020F48F5F809319010EC080915702882379
:1025500019F00E942E03F9CF81E0809319011092A7
:102560001D0410921C040E942E03E0CF803109F458
:10257000CDCABCCA113049F4822F90E0AC014B5651
:102580005B4F7A01A50161E10AC0123061F4822F2C
:1025900090E0BC016B567B4F7B01A50162E1C60157
:1025A0000E94CE059DCE123209F04DC080910505E6
:1025B00090E0982F882730910405832B892B39F4DC
:1025C000822F90E0DC01AB56BB4F7D012CC0D09236
:1025D0002304C0922204B0922104A09220042093EC
:1025E0001F0400931E04013009F52223B1F030E0EE
:1025F000220F331FF901EB5FFA4F808190E0982F93
:102600008827F901EC5FFA4F3081E12CF12C08E1C9
:102610002FE340E050E062E238C2E4EDEE2EE4E069
:10262000FE2E08E120E0A50162E3B9CF8DE28093A0
:10263000570210921D0410921C0474EDE72E74E0F2
:10264000F72E08E1F0CF153019F0113209F05CC017
:10265000A8E0B4E0E0E0F0E08D919D918C159D053F
:10266000E9F4CF01880F991FDC01A85FBB4FCD9221
:10267000DC92DF01A250BC4F1C93DC01A651BC4F81
:10268000AD92BC92DF01A052BC4F2C93BF016A52A5
:102690007C4FFB010083002329F028C0892B09F31C
:1026A0003196DACF1132C9F58091050590E0982F67
:1026B000882730910405832B892B09F4C0C2A5E03B
:1026C000B5E030E08C9190E0982F8827AD01415023
:1026D0005109FA014081842B892B29F012963D3251
:1026E00011F03F5FEFCFDB013C93A9C2153049F4F5
:1026F000822F90E0FC01EB56FB4F7F01A50165E1C5
:102700004ECF113269F59BC2173261F5002349F0B3
:10271000322F10E0020F111D18C0153049F3173287
:1027200009F5E9EAF3E011923C853E13FCCF211153
:1027300019C040917104509172049CEEE92E94E00E
:10274000F92E08E120E067E32ACF832F90E080177D
:1027500091076CF7FC01E755FC4F10823F5FF5CF06
:102760001732B1F2909170049532F1F42091730414
:10277000822F90E0AC01425A5A4F7A014091710485
:10278000509172040091740465E3C6010E94CE0565
:10279000EEE5F5E085E29081911101C080833196EC
:1027A0003E853E13F8CF9CCD983051F44091710492
:1027B00050917204E12CF12C00E020E068E1EFCEB2
:1027C0009632A9F52091050530E0322F222780911D
:1027D0000405282B232B09F452C0E5E0F5E020E0A6
:1027E000808190E0982F8827DF0111973C91832BFF
:1027F000892B29F032962D3211F02F5FF1CF2093E3
:102800001B0180917404873010F087E001C084E0E0
:102810008093740440917104509172041BE1E12E85
:1028200011E0F12E0091740420E066E3B8CE9832F6
:1028300031F52091050530E0322F222780910405E3
:10284000282B232BE1F08091D7058093A50380915D
:10285000D8058093A6038091D9058093A703809122
:10286000DA058093A8034091710450917204A5EA9F
:10287000EA2EA3E0FA2E04E020E068E390CE892F50
:10288000807D803131F1892F807F803529F180373B
:1028900009F026CD923701F5409174044A3008F0D2
:1028A000B0C19091710480917204909395048093CB
:1028B000960480917304809397044093980450E0A9
:1028C000609175047091760489E994E00E948F16F6
:1028D00098C1913309F404CD943319F0913709F07C
:1028E00050C01092230120917304822F8F7021F029
:1028F000AA24AA94B12C03C0E0EFAE2EB12C009113
:10290000740469E170E0601B7109E0907504F09057
:10291000760480E0C22ED12C3E2D482F50E0461781
:102920005707C4F4FA01EC52FB4FE081F0E0EA21D2
:10293000FB21EC15FD0561F444545B4FF7011E2F9C
:10294000131B101728F41191DA011D93AD01F7CF75
:102950008F5FE3CF943389F48091050590E0982F41
:10296000882730910405832B892B39F040E050E013
:1029700064E38FEF9FEF0E94CE0581E080932301F7
:10298000AFCC963111F150F4943191F0953109F0BA
:1029900038C1EBE4F3E080E090E0A3C0923309F4A7
:1029A00076C0933309F440C0973109F02AC124C09E
:1029B0004091740450E060917504709176048091A8
:1029C000730490E08B569B4F37C180917404823022
:1029D00008F086CCE091730481EF8E0F803308F00D
:1029E0007FCCF0E0EB56FB4FA0917504B0917604DC
:1029F00090818C91892316C080917404823008F0F4
:102A00006FCCE091730481EF8E0F803308F068CCB7
:102A1000F0E0EB56FB4FA0917504B09176049081E5
:102A20008C91892B80835CCC2091730421110AC086
:102A30004091740450E060917504709176048CEBC1
:102A400094E0FAC08091050590E0982F8827309196
:102A50000405832B892B09F443CC30E0220F331F6C
:102A6000E0907504F0907604F901EB5FFA4F8081F5
:102A700090E0982F8827F901EC5FFA4F30810091A0
:102A8000740427E240E050E064E1832B89CDE7E065
:102A9000F5E021E0808190E0982F8827DF011197F1
:102AA0003C91832BC816D90629F4D0921D04C092FC
:102AB0001C0404C02F5F32962D3261F780912204EE
:102AC00090912304009709F40BCCE0907504F090EA
:102AD000760440912004509121040091740462E333
:102AE0005FCD219131912C153D0511F00196F9CF63
:102AF000FC01E25EFC4F21E0208380917104909103
:102B00007204009709F070C0E7E0F5E011E0808101
:102B100090E0982F8827DF0111972C91822BC816FF
:102B2000D90621F01F5F32961D3289F76090750437
:102B300070907604309174043D87A12CB12CC12C87
:102B4000D12C9601220F331FA901485F5B4F5B8791
:102B50004A87DA018D919C910097E9F08115BFEFCA
:102B60009B07C9F0F901E651FC4F40815181730187
:102B70000D85212F61E30E94CE05882321F0EFEF20
:102B8000CE1ADE0A29C0FFEFAF1ABF0A24E0A21650
:102B9000B10428F423C03FEFC31AD30A1DC0AA858D
:102BA000BB858D919C910E943603F60131967F0181
:102BB000813089F4F9E0CF16D10469F0A2014C19F3
:102BC0005D09C701880F991FBC01685F7B4F8A5F51
:102BD0009B4F0E948F166701A12CB12C2AE0C216D0
:102BE000D10408F4AECF7CCB84549B4F34E0843ABC
:102BF000930708F475CB44E0833D940799F090F077
:102C00006FCB809171049091720484549B4F54E077
:102C1000843A950708F464CB64E0833D960711F08D
:102C200008F05ECB40917404442309F459CB50E082
:102C300060917504709176040E948F1651CBE9EA79
:102C4000F3E011923C853E13FCCF21118BCD3CEE7D
:102C5000E32E34E0F32E08E1A50161E3A0CCEAEB1A
:102C6000F1E01382128288EE93E0A0E0B0E084836A
:102C70009583A683B78380E991E09183808385EC77
:102C800090E09587848784EC90E09787868780EC36
:102C900090E0918B808B81EC90E0938B828B82EC27
:102CA00090E0958B848B86EC90E0978B868B118ED1
:102CB000128E138E148E0895AA1BBB1B51E107C000
:102CC000AA1FBB1FA617B70710F0A61BB70B881FBC
:102CD000991F5A95A9F780959095BC01CD0108954B
:102CE00097FB072E16F4009407D077FD09D00E94B9
:102CF0005C1607FC05D03EF4909581959F4F089592
:102D0000709561957F4F0895EE0FFF1F0590F49128
:102D1000E02D099481E090E0F8940C94AA166817CD
:102D2000790768F4FB01DC01E40FF51FA40FB51F60
:102D300002C002900E9241505040D8F708950C9472
:102D4000A116FB01DC0102C001900D9241505040E0
:082D5000D8F70895F894FFCFB5
:102D5800C0A80101FFFFFF00C0A80100C0A8010131
:102D6800FFFFFF00C0A80127200101002D180A2736
:102D78003F5701010100110002001200080018006D
:102D880009001900050015001300140016001700AB
:102D980083008400850021003100220032003300C6
:102DA80034002500350026003600270037002800AB
:102DB8003800290039002A003A002B002C002D0089
:102DC8002E002F00710072000000006500AB00BCEF
:102DD80000CEFF64FFAAFFBBFFCCFFDF00000000AE
:102DE800E5004E06AE008C00A0002C01010000009A
:062DF800000000000000D5
:00000001FF
