:100000000C9462000C948A000C948A000C948A0070
:100010000C948A000C948A000C948A000C948A0038
:100020000C948A000C948A000C948A000C948A0028
:100030000C948A000C948A000C948A000C948A0018
:100040000C948F0B0C948A000C94820A0C945C0A1A
:100050000C948A000C948A000C948A000C948A00F8
:100060000C948A000C948A000000000025002800EF
:100070002B000000000023002600290000000008DB
:10008000000201000003040700000000000000005F
:1000900000000000240027002A00010204081020AC
:1000A000408001020408102001020408102004040A
:1000B0000404040404040202020202020303030310
:1000C0000303222311241FBECFEFD8E0DEBFCDBF34
:1000D00012E0A0E0B1E0E6E2F9E402C005900D9282
:1000E000AC34B107D9F727E0ACE4B2E001C01D920F
:1000F000AB3AB207E1F710E0C2E6D0E004C02197C6
:10010000FE010E949823C136D107C9F70E940A1444
:100110000C9491240C940000CF93DF93EC01898D13
:100120009A8D892B41F0E881F9810680F781E02DD5
:10013000CE010995F4CFDF91CF910895CF93DF934E
:100140001F92CDB7DEB76983DC01ED91FC9102808F
:10015000F381E02D41E050E0BE016F5F7F4F0995D4
:100160000F90DF91CF910895FC01818D928D0895BC
:10017000FC0185899689089528E032E0FC013183ED
:100180002083FB014189528963897489FC01428380
:100190005383648375830895DC01ED91FC91008C99
:1001A000F18DE02D0994CF93DF93FC01218D328DE9
:1001B0002115310519F48FEF9FEF1EC0EC01421796
:1001C000530730F0A90184850E94D90B9C010AC015
:1001D00084854115510519F00E94D90B02C080E0B9
:1001E00090E09C011216130634F7898D9A8D821BBC
:1001F000930B9A8F898FC901DF91CF9108950F9347
:100200001F93CF93DF931F92CDB7DEB7FC01218DF3
:10021000328D232B59F08C0141E050E0BE016F5F1D
:100220007F4F84850E94D90B892B19F48FEF9FEFA4
:1002300008C0F801818D928D0197928F818F8981FD
:1002400090E00F90DF91CF911F910F910895CF9380
:10025000DF93EC018C85843061F00E94B60CEC8554
:10026000F0E0EE0FFF1FE55BF94F1182108284E092
:100270008C87DF91CF9108959B0190E00496982F91
:100280008827642F820F931F0C940F0E0F931F93D8
:10029000CF93FB018A01DC0158961C921E9257975E
:1002A0001C96CC918281811109C08381811106C085
:1002B0008481811103C085818823F9F0011511051E
:1002C000E1F0BF016E5F7F4F8C2F90E0982F882761
:1002D00044E050E0845F9B4F0E94170D412F60E186
:1002E00070E08C2F0E943C01402F61E170E08C2F68
:1002F0000E943C0181E090E002C080E090E0CF915C
:100300001F910F91089590E00496982F8827860FEB
:10031000971F0C94F50CCF93FC01C48560E270E04C
:100320008C2F0E94051262E070E08C2F0E948301E6
:1003300084FD10C062E070E08C2F0E94830183FF77
:10034000F2CF48E162E070E08C2F0E943C0180E037
:1003500090E008C040E162E070E08C2F0E943C0118
:1003600081E090E0CF9108950F931F93CF93DF9397
:10037000FC012485243011F080E026C08B01EC01C3
:1003800063E070E082E00E948301882351F08831AD
:1003900041F063E070E083E00E948301811104C0BA
:1003A00005C082E08C8704C0883111F483E0FACF65
:1003B0008C85843009F31E870D871A8E198EA8014B
:1003C00062E00E94C21381E0DF91CF911F910F91F3
:1003D00008951F93CF93DF93182F60E270E00E947F
:1003E0008301C82FD0E061E270E0812F0E94830179
:1003F000DC2FCC279E01282BC901DF91CF911F91C3
:1004000008956F927F928F929F92AF92BF92CF92F8
:10041000DF92EF92FF921F93CF93DF937C014B010A
:10042000EA01FC01A788B08C1485C12CD12C812F46
:100430000E94E9013C01892B21F0812F0E94E901F2
:100440006C01C614D70499F7CC16DD0678F4C12CDC
:10045000D12C812F0E94E901EC01892B21F0812F01
:100460000E94E9016C01CC16DD0699F7209731F066
:100470009E01A401B501812F0E94B912F70187895D
:10048000908D8C0F9D1F908F878BCE01DF91CF9128
:100490001F91FF90EF90DF90CF90BF90AF909F9013
:1004A0008F907F906F9008957F928F929F92AF92DE
:1004B000BF92CF92DF92EF92FF920F931F93CF9351
:1004C000DF93CDB7DEB7A6970FB6F894DEBF0FBEA9
:1004D000CDBF8C01762E942E852E20E2B22ECE0139
:1004E00001967C01FC012B2D11922A95E9F788E0F9
:1004F00092E09AA389A38FEF8BA38CA38DA38EA3E5
:10050000680187E4C80ED11C43E450E0BE016F5D72
:100510007F4FC6010E944601019609F4BFC081E0E9
:1005200089838A8386E0A82EAB821C82F8016481CD
:100530007581868197810E9491236D837E838F834D
:10054000988789869A8680E890E09C878B874CE123
:1005500050E0B701C6010E940102F7012B2D119254
:100560002A95E9F7480188E0880E911CF401D7012B
:1005700001900D92AA94E1F740E150E0B701C60165
:100580000E940102F7011192BA94E9F796E0A92EB0
:10059000B12C40E250E0B701C6010E940102F1E037
:1005A000AF1AB108B1F783E6898392E89A8393E59D
:1005B0009B838C8385E38D8381E08E837F829DE3A3
:1005C000988797E099878A8786E0F401DE011B9679
:1005D00001900D928A95E1F78CE0898B8A8B65E416
:1005E00072E0CE0143960E94C223F8014385BE010A
:1005F000675E7F4FC8010E94F00EF8014485BE017E
:10060000655E7F4FC8010E94F00EF8014585BE016E
:10061000635E7F4FC8010E94F00E4EE150E0B701CB
:10062000C6010E940102F3E07F121EC082E38983AB
:1006300084E08A83F80196859B8397859C839089C3
:100640009D8391899E8396E39F838887828D898786
:10065000838D8A87848D8B87858D8C874CE050E0D5
:10066000B701C6010E94010287E3898386E08A837D
:1006700091E09B8393E09C838D838FE08E838AE35C
:100680008F838BE388878FEF898749E050E0B7013C
:10069000C6010E940102C6010E948B01A6960FB6F8
:1006A000F894DEBF0FBECDBFDF91CF911F910F91A8
:1006B000FF90EF90DF90CF90BF90AF909F908F9082
:1006C0007F9008952A9A08952A9808951F93CF93AA
:1006D000DF93182F68E270E00E948301C82FD0E0FA
:1006E00069E270E0812F0E948301DC2FCC279E01FC
:1006F000282BC901DF91CF911F9108951F93CF93AC
:10070000DF931F92CDB7DEB7FC01218D328D232BF5
:1007100081F01485812F0E94660321E030E0AE0154
:100720004F5F5F4FBC01812F0E948913898190E048
:1007300002C08FEF9FEF0F90DF91CF911F9108952F
:10074000CF93DF93C82FD62F472F68E270E00E9427
:100750003C014D2F69E270E08C2FDF91CF910C941A
:100760003C011F93CF93DF93182F66E270E00E9445
:100770008301C82FD0E067E270E0812F0E948301DF
:10078000DC2FCC279E01282BC901DF91CF911F912F
:100790000895BF92CF92DF92EF92FF920F931F9333
:1007A000CF93DF93CDB7DEB728970FB6F894DEBFAF
:1007B0000FBECDBF8C01DC01ED91FC910284F3856D
:1007C000E02D0995F801B484E12CF12C8B2D0E94C9
:1007D000B1036C01892B21F08B2D0E94B1037C01A8
:1007E000EC14FD0499F7EF2859F148E050E0BE0100
:1007F0006F5F7F4FD8011C968C910E94D90B9C0192
:1008000018161906DCF489819A81AB81BC81F80144
:10081000818B928BA38BB48B8D8190E0982F88274E
:100820002E81820F911D968B858B2F8130E0322F88
:1008300022278885280F311D328F218FC90102C0E0
:1008400080E090E028960FB6F894DEBF0FBECDBFD3
:10085000DF91CF911F910F91FF90EF90DF90CF909C
:10086000BF9008952F923F924F925F926F927F9226
:100870008F929F92AF92BF92DF92EF92FF920F936F
:100880001F93CF93DF93CDB7DEB7E4970FB6F894FD
:10089000DEBF0FBECDBF7C011A012B0139010E94C2
:1008A000830B4B015C018701095B1F4FC8010E944C
:1008B000C90318161906A4F00E94830BDC01CB01B2
:1008C00088199909AA09BB09281639064A065B0640
:1008D000F0F062E370E080E090E00E94490BE6CF28
:1008E00042E250E0BE016F5F7F4FC8010E94D3001B
:1008F0008981823031F4F8018589968983349105A4
:1009000041F0D12CC8010E948C008D2D5BC18FEF6E
:1009100059C16D817E818F8198850E9491234B0101
:100920005C01F301608371838283938346E050E02E
:10093000B701685F7F4FCE014D960E94A323892B9C
:1009400099F4F70180819181A281B381881699067B
:10095000AA06BB0648F084819581A681B7818815D7
:100960009905AA05BB0528F4C8010E948C0080E007
:1009700029C189899A89AB89BC89F70186879787BC
:10098000A08BB18B8EECA82EB12CC8010E94FF0069
:10099000F1E0AF1AB108C9F7D12CC70182969AA726
:1009A00089A7F701B696FCA7EBA708969EA78DA787
:1009B0003C974F018E9698AB8FA73897FAABE9AB6F
:1009C0001701F6E12F0E311CCA979CAB8BABF801D7
:1009D000818D928D181619060CF094CFC8010E94D3
:1009E000FF008333910509F4C7C0FCF48130910501
:1009F000C9F11CF4892B59F3D9C083309105D1F189
:100A0000069709F0D3C0C8010E94FF005C0144E0D2
:100A100050E06BA97CA9C8010E94D300412C512C45
:100A2000BB24F4E0AF1AB10840C08A33910509F441
:100A300077C03CF48533910569F0C69709F440C04E
:100A4000B5C08B33910509F481C08F3F910509F43E
:100A5000BECFACC0C8010E94FF00C8010E94FF00C9
:100A6000D82EB5CFC8010E94FF0044E050E069A92C
:100A70007AA936C0C8010E94FF005C0144E050E042
:100A8000B101C8010E94D300412C512CBB2494E039
:100A9000A91AB1084A145B040CF099CFC8010E944E
:100AA000FF00EFEF4E1A5E0AF5CF4A145B040CF01C
:100AB0008ECFC8010E94FF008FEF481A580AF5CF69
:100AC000C8010E94FF00B82EF701828D938DA48D7E
:100AD000B58D892B8A2B8B2B39F444E050E0B4017F
:100AE000C8010E94D30073CFEFA5F8A940805180C0
:100AF00062807380B401CE0183960E944C0A8DA15E
:100B00009EA1AFA1B8A584159505A605B70529F343
:100B1000BB2009F45CCFC8010E94FF00BA94F8CF53
:100B2000C8010E94FF0044E050E06BA57CA5C8010D
:100B30000E94D300F70166A177A180A591A50E942C
:100B4000912366A377A380A791A741CFC8010E94F4
:100B5000FF0044E050E06DA57EA5C8010E94D300CF
:100B6000F70162A573A584A595A50E94912362A7AC
:100B700073A784A795A72BCFC8010E94FF0044E06C
:100B800050E069A57AA5C8010E94D300F70162A1CF
:100B900073A184A195A10E94912362A373A384A34E
:100BA00095A366A777A780AB91AB11CFC8010E9430
:100BB000FF00B82EBB2009F40ACFC8010E94FF0035
:100BC000BA94F8CFE4960FB6F894DEBF0FBECDBF4F
:100BD000DF91CF911F910F91FF90EF90DF90BF9029
:100BE000AF909F908F907F906F905F904F903F90CD
:100BF0002F9008954F925F926F927F928F929F9263
:100C0000AF92BF92CF92DF92EF92FF920F931F931A
:100C1000CF93DF93CDB7DEB7EE970FB6F894DEBF74
:100C20000FBECDBF5C018B014A0188E092E09A8340
:100C300089831C861B8648EE53E060E070E04D8798
:100C40005E876F87788B2AE431E03A87298724E032
:100C50002D8B998F888F1A8E1B8E1C8E1D8E99ABB3
:100C600088AB1AAA1BAA1CAA1DAA8091960790916C
:100C70009707A0919807B09199078EA39FA3A8A763
:100C8000B9A78B839C83AD83BE8318861F82F8012E
:100C9000D8018D918111FDCF20E030E080E090E01F
:100CA0005AE04191442311F1843091050CF042C087
:100CB0004E3279F42F3F310509F0E4F5A2E3B0E0BC
:100CC000AC0FBD1FA80FB91F2C93019620E030E098
:100CD000E8CF529FB001539F700D1124242F440F71
:100CE000330B20533109260F371FDBCF2F3F310540
:100CF00009F004F584309105ECF4FE01E80FF91FCA
:100D000022ABD501ED91FC910088F189E02D88E0BE
:100D100092E09DA38CA38AA99BA9ACA9BDA98EA38F
:100D20009FA3A8A7B9A7A401BE016C5D7F4FC50111
:100D300009952EC24B815C816D817E8180919E07D9
:100D400090919F07A091A007B091A107481759075C
:100D50006A077B0709F41AC20E94830B6F7077271A
:100D60007C5FCE0109960E94B401813009F00BC26C
:100D700088E092E09DA38CA38B819C81AD81BE8194
:100D80008EA39FA3A8A7B9A745E350E0BE016C5D61
:100D90007F4FCE0109960E944601892B19F400E08D
:100DA00010E0FAC00E94830B78876F8342E050E026
:100DB000BE01695F7F4FCE0109960E94010281E06A
:100DC00090E09DA38CA342E050E0BE016C5D7F4F9C
:100DD000CE0109960E94010280E091E09DA38CA3C0
:100DE00042E050E0BE016C5D7F4FCE0109960E944B
:100DF00001021DA21CA242E050E0BE016C5D7F4FCB
:100E0000CE0109960E94010242E050E0BE016C5DF5
:100E10007F4FCE0109960E94010242E050E0BE01E0
:100E20006C5D7F4FCE0109960E9401027801D701C7
:100E30008C91882319F1F8017F018191811117C0EC
:100E40006701C01AD10A1C141D04A4F4CEAA41E003
:100E500050E0BE016A5C7F4FCE0109960E940102FC
:100E6000A601B801CE0109960E94010203C08E328C
:100E700019F7E6CF87010F5F1F4FD9CF1EAA41E0B8
:100E800050E0BE016A5C7F4FCE0109960E940102CC
:100E900000E011E01DA30CA342E050E0BE016C5D38
:100EA0007F4FCE0109960E9401021DA30CA342E0D0
:100EB00050E0BE016C5D7F4FCE0109960E94010299
:100EC000CE0109960E948B01892B09F468CF83E03B
:100ED000E82EF12C0E94830B2B013C01CE010996D8
:100EE0000E94C90318161906A4F00E94830BDC01A6
:100EF000CB0184199509A609B70989389341A10541
:100F0000B105C8F462E370E080E090E00E94490B14
:100F1000E5CF4B815C816D817E818A8D9B8DAC8D0F
:100F2000BD8D481759076A077B0741F48E8D9F8D49
:100F3000C59721F406C02FEF3FEF25C02EEF3FEFFE
:100F400022C08AA19BA10C970CF41AC14CE050E07E
:100F5000BE016C5D7F4FCE0109960E94D3008EA129
:100F60009FA19827892798279BAF8AAF4F815885E3
:100F70002CA13DA142175307C9F0CE0109960E944A
:100F80008C002CEF3FEF8901B1E0EB1AF10821F062
:100F90002F3F3F4F09F49ECFCE0109960E942701B3
:100FA0000130110509F4ADCEC801F2C097FFE5CFBD
:100FB0008F709270892B39F0CE0109960E948C00B7
:100FC0002BEF3FEFE0CF0AA51BA510270127102725
:100FD0000115110539F4CE0109960E948C002AEF03
:100FE0003FEFD1CFC12CD12C88A599A5982789276F
:100FF0009827C816D90670F541E050E0BE016A5C3A
:101000007F4FCE0109960E94D3008EA9811117C08F
:101010008EA98111F1CFCE0109960E94FF00CE0169
:1010200009960E94FF00CE0109960E94FF00CE01A2
:1010300009960E94FF00FFEFCF1ADF0AD5CF8EA9D5
:101040009FEF980F9EAB882319F3CE0109960E945B
:10105000FF00F5CFC12CD12C41E050E0BE01645C13
:101060007F4FCE0109960E94D3008CAD982F907CC3
:1010700069F4882381F08CAD9FEF980F9CAF882393
:1010800051F0CE0109960E94FF00F5CFCE010996DE
:101090000E94FF001CAE8CAD8111DECF42E050E01B
:1010A000BE01685C7F4FCE0109960E94D30042E0EA
:1010B00050E0BE016A5C7F4FCE0109960E94D300CA
:1010C000CE0109960E94FF00CE0109960E94FF0002
:1010D000CE0109960E94FF00CE0109960E94FF00F2
:1010E00042E050E0BE01665C7F4FCE0109960E944F
:1010F000D30088AD99AD8115914011F52EA93FA976
:1011000032272327322721303105D1F48AAD9BAD18
:101110008115944039F0CE0109960E948C0027EF8A
:101120003FEF31CF44E050E0BE016E5C7F4FCE0117
:1011300009962DAF3EAF0E94D3002DAD3EAD23CF1B
:10114000612C712C8AAD9BAD98278927982768164A
:10115000790640F4CE0109960E94FF008FEF681ACD
:10116000780AF0CFAFEFCA1ADA0AC016D10609F032
:1011700073CFCE0109960E948C0026EF3FEF03CF7C
:101180002DEF3FEF00CF80E090E002C08EEF9FEFA9
:10119000EE960FB6F894DEBF0FBECDBFDF91CF91B4
:1011A0001F910F91FF90EF90DF90CF90BF90AF9085
:1011B0009F908F907F906F905F904F9008958EBD1D
:1011C00000000DB407FEFDCF8EB50895FC01918D92
:1011D000828D981761F0828DDF01A80FB11D5D9699
:1011E0008C91928D9F5F9F73928F90E008958FEF07
:1011F0009FEF0895FC01918D828D981731F0828DBB
:10120000E80FF11D858D90E008958FEF9FEF089511
:10121000FC01918D228D892F90E0805C9F4F821B75
:1012200091098F739927089587EF96E00E94080926
:1012300021E0892B09F420E0822F0895FC01848DA0
:10124000DF01A80FB11DA35ABF4F2C91848D90E0F0
:1012500001968F739927848FA689B7892C93A089CB
:10126000B1898C9180648C93938D848D981306C082
:101270000288F389E02D80818F7D80830895EF922D
:10128000FF920F931F93CF93DF93EC0181E0888F40
:101290009B8D8C8D981305C0E889F989808185FD27
:1012A00024C0F62E0B8D10E00F5F1F4F0F73112718
:1012B000E02E8C8DE8120CC00FB607FCFACFE8893F
:1012C000F989808185FFF5CFCE010E941E09F1CFFB
:1012D0008B8DFE01E80FF11DE35AFF4FF0820B8F5B
:1012E000EA89FB898081806207C0EE89FF8960837B
:1012F000E889F98980818064808381E090E0DF91D2
:10130000CF911F910F91FF90EF900895CF93DF93AE
:10131000EC01888D8823C9F0EA89FB89808185FDED
:1013200005C0A889B9898C9186FD0FC00FB607FC4E
:10133000F5CF808185FFF2CFA889B9898C9185FF8F
:10134000EDCFCE010E941E09E7CFDF91CF91089526
:1013500080E090E0892B29F00E94140981110C94FF
:1013600000000895833081F028F4813099F08230B4
:10137000A1F008958730A9F08830B9F08430D1F415
:10138000809180008F7D03C0809180008F77809353
:101390008000089584B58F7702C084B58F7D84BDA9
:1013A00008958091B0008F7703C08091B0008F7D49
:1013B0008093B00008953FB7F894809164069091AF
:1013C0006506A0916606B091670626B5A89B05C084
:1013D0002F3F19F00196A11DB11D3FBFBA2FA92FB4
:1013E000982F8827820F911DA11DB11DBC01CD0131
:1013F00042E0660F771F881F991F4A95D1F708951D
:101400008F929F92AF92BF92CF92DF92EF92FF9214
:101410000F931F93CF93DF937C01EB016C0182E06C
:10142000C80ED11C4701E5E08E0E911C00E010E0D3
:10143000F60141916F0150E060E070E02AE0CE01DA
:101440000E94BC115C01E881F9810190F081E02DDE
:101450006EE2CE0109958A0D9B1D080F191FC81455
:10146000D90431F7F701458150E060E070E02AE0EF
:10147000CE010E94BC11800F911FDF91CF911F916F
:101480000F91FF90EF90DF90CF90BF90AF909F9023
:101490008F9008950E949E2328E032E0FC01318362
:1014A0002083FB014081518162817381FC01428371
:1014B00053836483758308951F920F920FB60F9222
:1014C00011242F933F934F935F936F937F938F9349
:1014D0009F93AF93BF93EF93FF9387EF96E00E94A4
:1014E0001E09FF91EF91BF91AF919F918F917F91D5
:1014F0006F915F914F913F912F910F900FBE0F9081
:101500001F9018951F920F920FB60F9211242F93D0
:101510008F939F93EF93FF93E0910707F091080754
:101520008081E0910D07F0910E0782FD12C090813D
:10153000809110078F5F8F7320911107821751F0F0
:10154000E0911007F0E0E950F94F958F8093100774
:1015500001C08081FF91EF919F918F912F910F900A
:101560000FBE0F901F901895CF93DF93282F30E078
:10157000F901E458FF4F8491F901E656FF4FD491E9
:10158000F901E255FF4FC491CC2391F081110E94E3
:10159000B209EC2FF0E0EE0FFF1FEE58FF4FA591C0
:1015A000B491EC91ED2381E090E021F480E002C061
:1015B00080E090E0DF91CF9108951F93CF93DF9368
:1015C000282F30E0F901E458FF4F8491F901E656E5
:1015D000FF4FD491F901E255FF4FC491CC23C9F0DC
:1015E000162F81110E94B209EC2FF0E0EE0FFF1FC1
:1015F000E859FF4FA591B4918FB7F894111105C028
:101600009C91ED2FE095E92302C0EC91ED2BEC933A
:101610008FBFDF91CF911F910895CF93DF9390E01B
:10162000FC01E656FF4F2491FC01E255FF4F8491E7
:10163000882361F190E0880F991FFC01E057FF4F6C
:10164000C591D491FC01E859FF4FA591B491611166
:1016500009C09FB7F8948881209582238883EC91F4
:101660002E230BC0623061F49FB7F8943881822F2B
:10167000809583238883EC912E2B2C939FBF06C0EB
:101680008FB7F894E8812E2B28838FBFDF91CF91FD
:1016900008958F929F92AF92BF92CF92DF92EF9276
:1016A000FF926B017C010E94DB094B015C01C114BC
:1016B000D104E104F104F1F00E94DB09DC01CB016B
:1016C00088199909AA09BB09883E9340A105B1056B
:1016D00070F321E0C21AD108E108F10888EE880E03
:1016E00083E0981EA11CB11CC114D104E104F104D3
:1016F00019F7DDCFFF90EF90DF90CF90BF90AF90C4
:101700009F908F9008952FB7F89460916006709124
:10171000610680916206909163062FBF08951F9223
:101720000F920FB60F9211242F933F938F939F9395
:10173000AF93BF938091600690916106A09162067D
:10174000B091630630915F0623E0230F2D3720F41C
:101750000196A11DB11D05C026E8230F0296A11D0B
:10176000B11D20935F068093600690936106A0935D
:101770006206B09363068091640690916506A0911D
:101780006606B09167060196A11DB11D809364069F
:1017900090936506A0936606B0936706BF91AF91DC
:1017A0009F918F913F912F910F900FBE0F901F909F
:1017B0001895CF92DF92EF92FF920F931F93CF93E2
:1017C000C82F6B017A010E9466038C019701A60164
:1017D000BC018C2F0E948913B8016E0D7F1D8C2FC8
:1017E0000E94A00360E470E08C2F0E940512C701E4
:1017F000CF911F910F91FF90EF90DF90CF900895C0
:101800008091C602882319F081508093C602089502
:101810009C01A8ECB1E0EEEBF1E090E04D915D9120
:101820009F5F4217530738F0408151814217530799
:1018300010F4892F08953296953081F780E008954D
:10184000EF92FF920F931F93CF93DF93EC017B01F5
:101850008A010E94080CF801808390E00197FC0146
:10186000EE0FFF1FEE52FE4F20813181232BB1F08E
:1018700026E0289FF001299FF00D1124E859F94F27
:10188000208131812C273D27428153812423352318
:10189000232B21F4F701D183C08361C026E0289F68
:1018A000F001299FF00D1124E859F94F82819381AD
:1018B000009761F08C239D239C012160E70139830F
:1018C0002883E4E7F2E020E030E008C0CE0188277A
:1018D000F8CF2F5F3F4F2A30310531F041915191C0
:1018E00048175907B1F738C00097B9F0209188021E
:1018F000309189022817390781F42AE030E0220F5D
:10190000331FF901E05AFD4F80819181F7019183E6
:1019100080830E94080CE8018883ACE4B2E0E0E038
:101920002D913D91E701888199812115310531F093
:101930002817390719F0EF5FEA3091F7F0E0EE0F62
:10194000FF1FE45BFD4F208131812817390739F4EF
:10195000F7011182108203C0892B89F6DECFDF9157
:10196000CF911F910F91FF90EF900895CF93C82FC3
:1019700060E170E00E9405124FEF62E070E08C2F92
:10198000CF910C943C01CF92DF92EF92FF920F9394
:101990001F93CF93DF93EC017A018B016C01C40E8E
:1019A000D51ECC15DD05B9F0F8940E9464038FE0D4
:1019B0000E94DF088D2F0E94DF088C2F0E94DF0815
:1019C000219680E00E94DF08F80181938F010E9438
:1019D00062037894E6CFC701DF91CF911F910F91F9
:1019E000FF90EF90DF90CF9008951F93CF93DF93F8
:1019F0001F92CDB7DEB7182FF89499830E94640325
:101A00008FE00E94DF089981892F0E94DF08812FD3
:101A10000E94DF0880E00E94DF0889830E94620341
:101A2000789489810F90DF91CF911F910895CF9283
:101A3000DF92EF92FF920F931F93CF93DF93EC010E
:101A40007A018B016C01C40ED51ECC15DD05B1F0F9
:101A5000F8940E94640380EF0E94DF088D2F0E949B
:101A6000DF088C2F0E94DF082196F80181918F01F9
:101A70000E94DF080E9462037894E7CFC701DF91DC
:101A8000CF911F910F91FF90EF90DF90CF9008952D
:101A9000CF93DF93CDB7DEB72A970FB6F894DEBFAA
:101AA0000FBECDBF89879A87EEE8F6E02381280F25
:101AB0003281390F41815081548345833683278396
:101AC0008F839887ECE0F1E09581890F8E8398856C
:101AD0008481890F8D8383818C8382818B83818133
:101AE0008A838081898346E050E0BE016F5F7F4F2B
:101AF00089E090E00E94170D44E050E062E976E052
:101B00008FE090E00E94170D44E050E06AE976E033
:101B100081E090E00E94170D44E050E066E976E035
:101B200085E090E00E94170D0E94FC132A960FB6E4
:101B3000F894DEBF0FBECDBFDF91CF9108950F9314
:101B40001F93CF93DF93C0E0D0E081E00E94B10308
:101B50008C01892B21F081E00E94B103EC01C017B8
:101B6000D10799F7C0938C02C850C73308F444C01A
:101B700010928C0281E00E94B60C63E070E081E07C
:101B80000E9483018111F9CF46EE50E062E081E0CE
:101B90000E94C2138091560690915706A091580654
:101BA000B09159060196A11DB11D809356069093E0
:101BB0005706A0935806B0935906C0E08091560688
:101BC00090915706A0915806B091590680389C4FC5
:101BD000AA40B105F0F010925606109257061092E6
:101BE0005806109259060E943D1280916806909105
:101BF00069060E94480D0DC081E080938F0210920B
:101C00005606109257061092580610925906C1E0D7
:101C1000D5CF8C2FDF91CF911F910F9108951F93F6
:101C2000CF93DF9300D0CDB7DEB7182FF8946A8337
:101C300099830E94640380EF0E94DF089981892FB5
:101C40000E94DF08812F0E94DF086A81862F0E9490
:101C5000DF080E946203789481E00F900F90DF917B
:101C6000CF911F910895E091CE06F091CF06848127
:101C700081110FC0858181110CC08681978190935D
:101C8000CF068093CE0617821682109255061092C8
:101C90005406E091CE06F091CF068481882361F04E
:101CA000815084830190F081E02D8091550691E070
:101CB000980F909355060EC08581882379F0815046
:101CC00085830280F381E02D8091540691E0980F86
:101CD00090935406E80FF11D8081089580E00895E7
:101CE000E091CE06F091CF0680E0309741F025815B
:101CF0009481920F890F0680F781E02DF6CF089529
:101D00008091CE069091CF06892B41F00E94700EF3
:101D100091E0811101C090E0892F08950895E0912C
:101D2000CE06F091CF0611821082138212821482A5
:101D300015821782168208959093CF068093CE065F
:101D40001092550610925406109253060895AF92C1
:101D5000BF92CF92DF92EF92FF920F93CF93DF93D8
:101D60001F92CDB7DEB75C018AE5C82E86E0D82E7B
:101D700060935A0640935B0650935C0620935D0681
:101D800000935E0686E896E069830E949C0E698156
:101D90006079E091CE06F091CF06D182C0826031A9
:101DA00051F4F382E28285E08483058317821682F0
:101DB00065E0600F08C01382128285E0848315827B
:101DC0001782168265E0C5010F90DF91CF910F91C8
:101DD000FF90EF90DF90CF90BF90AF900C942B10BE
:101DE00080E3FB0180833296842F82958F7090E18F
:101DF000899F401911244A3014F4405D01C0495CA8
:101E00004293482F8111F0CF0895CF92DF92EF9245
:101E1000FF920F931F93CF93DF936C017A018B0195
:101E2000C0E0D0E0CE15DF0589F0D8016D918D01BD
:101E3000D601ED91FC910190F081E02DC60109954C
:101E4000892B11F47E0102C02196ECCFC701DF91EE
:101E5000CF911F910F91FF90EF90DF90CF90089559
:101E60000F931F93CF93DF9300D000D000D0CDB756
:101E7000DEB706EE10E08F3F2EEF920731F48FEFC2
:101E800089838A838B838C8332C09C013D7F2F3F63
:101E90003D4FA9F39C0121503B4A2E3F304178F33E
:101EA0009C012227232B91F0ECEBF6E020E030E0C0
:101EB000419151914817590709F485C02F5F3F4F51
:101EC00025303105A9F70E948F0EB9C09E838D83FE
:101ED00090919106890F8C839E8180919006890F45
:101EE0008B8380918F068A8380918E0689836F5FB2
:101EF0006093E6068EED96E00E949C0EE091CE0681
:101F0000F091CF0686EE96E0918380831382128251
:101F100081E08483158286EC96E0978386838EED3C
:101F200096E00E949C0E0E94700E998191110AC049
:101F30009A81911107C09B81911104C09C819923C2
:101F400009F476C00115110509F472C0882309F45B
:101F50006FC044E050E0BE016F5F7F4F8CE095E0C2
:101F60000E94170D412F60E170E081E00E943C016A
:101F7000402F61E170E081E00E943C0120E030E010
:101F80004EED56E060E070E081E00E94B91260E240
:101F900070E081E00E9405121FEF82E095E00E9450
:101FA000F50C84FF27C063E070E081E00E948301AC
:101FB000813001F160E182E095E00E940F0E0E9405
:101FC0008F0E81E03DC0F901EE0FFF1FEE0FFF1FE6
:101FD000E855F94F80819181A281B38189839A83E9
:101FE000AB83BC83220F331FF901E256F94F008106
:101FF00011817DCF82E095E00E94F50C83FF06C041
:1020000068E182E095E00E940F0E12C0112381F07A
:1020100063E070E081E00E948301813009F0BDCF70
:10202000115061E070E080E090E00E94490BB5CF74
:102030000E948F0E81E00E94B60C0E94FC1380E08B
:1020400026960FB6F894DEBF0FBECDBFDF91CF91BD
:102050001F910F9108952F923F924F925F926F922E
:102060007F928F929F92AF92BF92CF92DF92EF9228
:10207000FF920F931F93CF93DF9300D000D0CDB783
:10208000DEB78C01262F6F3208F08CC081153FEF30
:10209000930709F487C09D7F8F3F9D4F09F085C04E
:1020A000212EF2EDCF2EF1E0DF2EA8E6EA2EA6E0FB
:1020B000FA2E612C712CB6EDAB2EB6E0BB2E86E06D
:1020C000582E560E90ED892E96E0992E27E1322E4D
:1020D00036E0432E80911D01813031F46CE271E0D5
:1020E00080E090E00E94490BF601819191916F018F
:1020F00093012F5F3F4F3901892B09F447C080912D
:102100008606909187069093D7068093D606809195
:102110008806909189069093D9068093D80680917D
:102120008A068093DA0680918B068093DB06809185
:102130008C0690918D069093DD068093DC0650927C
:10214000D0063092D1060093D2062092D306F70132
:10215000908181819093D4068093D50686EC96E099
:102160000E949C0EE091CE06F091CF069182808273
:102170001382128244821582B782A682F1E06F1622
:10218000710421F4652DC8010E94300F26E0E20E93
:10219000F11C35E06316710409F09CCF86E896E0E7
:1021A0000E949C0E0E948F0EBAC0C8018150914FB0
:1021B0008F3F9B4008F06EC0612E82EDC82E81E0FB
:1021C000D82E40E050E096EDA92E96E0B92E36E0EC
:1021D000532E560E60ED862E66E0962E77E1472E42
:1021E00077247A94E6E03E2EF601819191916F0179
:1021F0009A012F5F3F4F7901892B09F445C08091E7
:102200008606909187069093D7068093D606809194
:102210008806909189069093D9068093D80680917C
:102220008A068093DA0680918B068093DB06809184
:102230008C0690918D069093DD068093DC0650927B
:10224000D0064092D1067092D2067092D3060093C7
:10225000D4066092D50686EC96E00E949C0EE09132
:10226000CE06F091CF069182808213821282348250
:102270001582B782A68231E0E316F10429F4652DB8
:102280008FEF9FEF0E94300FA7014530510509F0F5
:10229000ABCF84CFAE014D5F5F4FBE016F5F7F4F0D
:1022A000C8012C830E94200C2C8166E0620F609391
:1022B000D00687E18093D1060093D2061093D3060F
:1022C0008B8190E0019716E0189FF001199FF00DA7
:1022D0001124E859F94F908181819093D40680931D
:1022E000D50686EC96E06C830E949C0EE091CE06AB
:1022F000F091CF0680ED96E0918380831382128265
:102300001483158286E896E0978386838B816C819F
:10231000813029F489819A810E94300F01C080E0C8
:102320000F900F900F900F90DF91CF911F910F9111
:10233000FF90EF90DF90CF90BF90AF909F908F90E5
:102340007F906F905F904F903F902F900895611510
:10235000710579F0FB0101900020E9F73197AF0199
:10236000461B570BDC01ED91FC910280F381E02DBF
:10237000099480E090E008954F925F926F927F926F
:10238000EF92FF920F931F93CF93DF93CDB7DEB7FA
:10239000A1970FB6F894DEBF0FBECDBF7C01FA0146
:1023A000CB0119A2223008F42AE08E010F5D1F4FE5
:1023B000422E512C612C712CBF01A30192010E946D
:1023C0002E24F901CA01015011096A3014F4605D2C
:1023D00001C0695CD8016C93232B242B252B61F75A
:1023E000B801C7010E94A711A1960FB6F894DEBFED
:1023F0000FBECDBFDF91CF911F910F91FF90EF9056
:102400007F906F905F904F900895CF93C82F462F85
:1024100061E070E00E943C0161E070E08C2F0E945E
:1024200083018111F9CFCF910895E7EFF6E0A089FC
:10243000B18982E08C93A485B5851C92A685B78569
:102440008FEC8C93108EA489B58986E08C93A28939
:10245000B3898C9180618C93A289B3898C918860B7
:102460008C93A289B3898C9180688C930288F389BC
:10247000E02D80818F7D80830895CF936CE271E0A1
:1024800080E090E00E94490BCFB7F8948091A407B8
:10249000811127C0E8EBF0E08491E4EAF0E0949148
:1024A000E82FF0E0EE0FFF1FE057FF4FA591B4912A
:1024B000EC91E92321F461E08AE00E94DD0A61E009
:1024C0008AE00E940D0B8CB580618CBD8CB5806458
:1024D0008CBD61E08DE00E940D0B61E08BE00E94FD
:1024E0000D0B8091A4078F5F8093A407CFBF229A22
:1024F00060E880E090E00E940F0E65E58BE190E0DF
:102500000E940F0E65E58AE190E00E940F0E80E0C8
:1025100090E49093E8068093E70680E090E690933D
:10252000F0068093EF0680E098E49093EA068093AB
:10253000E90680E098E69093F2068093F10680E049
:1025400090E59093EC068093EB0680E090E7909303
:10255000F4068093F30680E098E59093EE0680936E
:10256000ED0680E098E79093F6068093F506CF910C
:1025700008955F926F927F928F929F92AF92BF92D7
:10258000CF92DF92EF92FF920F931F93CF93DF933F
:10259000582E7B015A01E90164E270E00E94830138
:1025A000082F10E065E270E0852D0E948301102F56
:1025B0000027082B6801CE0CDF1C360147E074228F
:1025C000052D10E0000F111FF801E951F94FE080CF
:1025D000F180E60CF71C209749F4C5010E949C0E7F
:1025E0000E94700EC82FD0E0C50102C080E090E0CC
:1025F0009E01260D371D2130384008F44EC060E0A2
:1026000078E04B0186189708892B11F0570120C0FC
:10261000A401B501C7010E94170DAE01481959095F
:10262000B501680D791DF801E951F94F808191815B
:102630003BC00E94800E882389F00E94330E350132
:102640009FEF691A790A682FC5010E940F0E530186
:102650008A2D8E1990E08815990558F3F801E951F3
:10266000F94FB080EB2CF1808E01081919098E2DDD
:102670008B1990E08017910778F50E94800E8823CF
:1026800059F10E94330E47014FEF841A940A682FC4
:10269000C7010E940F0E7401EACF892B11F0870148
:1026A00015C0AE01B501C7010E94170D15C00E94EB
:1026B000800E882389F00E94330E58019FEFA91ADB
:1026C000B90A682FC8010E940F0E8501802F8E194C
:1026D00090E08C179D0758F3CC0DDD1D4D2F64E263
:1026E00070E0852D0E943C014C2F65E270E0852D45
:1026F000DF91CF911F910F91FF90EF90DF90CF90DE
:10270000BF90AF909F908F907F906F905F900C9450
:102710003C01CF92DF92EF92FF920F931F93CF93E2
:10272000DF93FB01BA01F770C82FD0E0CC0FDD1F9B
:10273000C151D94F888199818E0F9F1FAF01420FE0
:10274000531F4130584098F089016B0120E038E078
:102750007901EE1AFF0AA7010E94C30CA8014E19C5
:102760005F09B6016E0D7F1D8881998101C0A901A5
:10277000DF91CF911F910F91FF90EF90DF90CF905D
:102780000C94C30CFF920F931F93CF93DF931F9270
:10279000CDB7DEB7F82E8A0169830E94B60C698135
:1027A000462F60E070E08F2D0E943C01011511055D
:1027B00051F40091A2071091A3070F5F1F4F1093D0
:1027C000A3070093A207412F64E070E08F2D0E94C1
:1027D0003C01402F65E070E08F2D0E943C0161E0DC
:1027E00070E08F2D0E94051281E00F90DF91CF9154
:1027F0001F910F91FF90089563E070E081E00E94C7
:102800008301811106C046EE50E062E081E00C9445
:10281000C2130895CF93DF93CDB7DEB76B970FB692
:10282000F894DEBF0FBECDBF789484B5826084BDBE
:1028300084B5816084BD85B5826085BD85B58160C4
:1028400085BD80916E00816080936E001092810042
:1028500080918100826080938100809181008160FD
:1028600080938100809180008160809380008091BE
:10287000B10084608093B1008091B000816080934A
:10288000B00080917A00846080937A0080917A0011
:10289000826080937A0080917A00816080937A00D0
:1028A00080917A00806880937A001092C100109223
:1028B0003F06109240061092410610924206109276
:1028C0000D0610920E0610920F061092100660ED83
:1028D00077E080E090E00E94490B87EF96E09093CC
:1028E0003E0680933D060E9415120E94830B0091C4
:1028F0000D0610910E0620910F0630911006DC0196
:10290000CB01801B910BA20BB30B8197A105B105E5
:1029100038F463E070E080E090E00E94490BE5CF7E
:102920000E94830B60930D0670930E0680930F0632
:102930009093100660E172E080913D0690913E0612
:102940000E94A7116AE070E080E090E00E94490BCD
:1029500081E0809311060E941512ABEDB2E0E4E62F
:10296000F3E08DE18E0F11921D928E13FCCFEFE0FC
:10297000F5E0119226E0E630F207D9F749E953E095
:102980002FE833E085E893E00DEA13E0E7EBF3E0AE
:1029900011921192DA011D921D92AD01D9011D9281
:1029A0009D01DC011D92CD01D8011D928D01B3E086
:1029B000EB3CFB0769F724E234E081E594E068ED45
:1029C00074E0EEE7F4E011921192D9011D929D019D
:1029D000DC011D92CD01DB011D92BD01B4E0E83D9B
:1029E000FB0789F7A7ECB2E0E8EAF6E084E18E0F96
:1029F00011921D928E13FCCF80915B0381112AC02E
:102A0000109243031092420388EE93E0A0E0B0E0FE
:102A10008093440390934503A0934603B0934703E8
:102A20008AE491E0909341038093400384E0809393
:102A30004C0388E092E09093500380934F031092F0
:102A4000510310925203109253031092540381E0E9
:102A500080935B0389EF92E090939B0780939A07A2
:102A60000E943D1246E050E06CE071E089E090E0A9
:102A70000E94170D88E092E09A8389831B821C8252
:102A80001D821E8244E050E0BE016D5F7F4F8FE0EB
:102A900090E00E94170D00919A0710919B07F80192
:102AA00012A213A214A215A216A217A210A611A672
:102AB00012A613A614A615A616AA17AA10AE11AE32
:102AC00080E69AEEA0E0B0E082AF93AFA4AFB5AFDE
:102AD0001801FEE32F0E311C80EA9FE0A0E0B0E079
:102AE000F10180839183A283B383D801189686E095
:102AF000FD01C82E1192CA94E9F79801225F3F4F59
:102B000094E1F90111929A95E9F7ECE0F1E0019076
:102B10000D928A95E1F74801F6E48F0E911CD401DD
:102B20001C920E9420242FEC37E040E050E00E94ED
:102B30005024DC01CB010196A11DB11DF801848355
:102B40009583A683B78380839183A283B38358013F
:102B5000F7E4AF0EB11CC5010E94270164E470E0E8
:102B6000C5010E94B401882309F42AC20E94830B84
:102B70002B013C01188E1F8A1D8A38EEC32E33E0CC
:102B8000D32EE12CF12CD4018C91833009F4FDC0BB
:102B900081111FC0F80184819581A681B7810196BA
:102BA000A11DB11D84839583A683B7830E94830BE7
:102BB0006419750986099709A70196010E942E24B8
:102BC000A90161E0C8010E94540281E0D4018C9304
:102BD000BDC08430F9F4F80184819581A681B78164
:102BE0000196A11DB11D84839583A683B7830E949E
:102BF000830B6419750986099709A70196010E943C
:102C00002E24A90163E0C8010E945402E2E0D4012D
:102C1000EC939CC0813059F5D1014D915D916D913E
:102C20007C919E012F5F3F4FC8010E9432048D8B23
:102C3000823009F08BC089819A81AB81BC81F80117
:102C400084839583A683B7830E94830B64197509D7
:102C500086099709A70196010E942E24A90163E025
:102C6000C8010E945402ED89D401EC9375C08230F2
:102C700009F06CC0D1014D915D916D917C919E01E7
:102C80002F5F3F4FC8010E9432048D8B853009F0C1
:102C900057C023E0F4012083F80182A193A1A4A1ED
:102CA000B5A1892B8A2B8B2B41F424E833E040E03B
:102CB00050E022A333A344A355A3F80186A197A112
:102CC000A0A5B1A5892B8A2B8B2B61F482A193A19E
:102CD000A4A1B5A1B695A7959795879586A397A327
:102CE000A0A7B1A7D8019A964D915D916D917C9165
:102CF0009D9796968D919D910D90BC91A02D452B01
:102D0000462B472B59F4AC01BD01440F551F661FDC
:102D1000771FF80142A753A764A775A7F80186A7F4
:102D200097A7A0ABB1AB82A593A5A4A5B5A582AB8F
:102D300093ABA4ABB5AB21E030E0388F2F8B0CC048
:102D40003D89363019F4D4011C9206C0BD89BF3FBD
:102D500019F4F40110821D8A2F89388D2130310534
:102D600009F411CF0E94830BDC01CB018419950972
:102D7000A609B709F80122AD33AD44AD55AD28170A
:102D800039074A075B0708F0FECEC5010E942701FC
:102D9000F80184819581A681B7810196A11DB11D9D
:102DA00084839583A683B7832F89388D213031059D
:102DB00009F006C160919A0770919B076A5E7F4F88
:102DC000CE0101960E944C0A60919A0770919B0770
:102DD0006E5E7F4FCE0109960E944C0A60919A0761
:102DE00070919B07625F7F4FCE010F960E944C0A45
:102DF0007E0131E1E30EF11C08E011E0AE01455F18
:102E00005F4FDE01139630E0C32E31E0D32E24E075
:102E100031E0B80184E0F70191917F01FB019193CA
:102E2000BF01FA019191AF01F90191939F019D9129
:102E3000F60191936F01815071F7EC88F12C10929B
:102E40000B01C7010E94080C813049F09091F802F3
:102E5000911176C048E656E0E1E9F2E01FC0EEE8E5
:102E6000F6E094E09E0FD8012D918D0121939E13E1
:102E7000FACFA6E9B6E0E4E0F1E09F012C5F919182
:102E80009D932E13FCCFAAE9B6E0E0E0F1E09F01AC
:102E90002C5F91919D932E13FCCFD8CFDA01119620
:102EA0001C921E9213961C921E92129715961C92BB
:102EB0001E9214979F0122503109D9011C922F5F55
:102EC0003F4FD9011C921082148213821682158200
:102ED000108617824A5F5F4F3B96B2E0E83CFB07E3
:102EE000E9F6E4E7F2E020E632E04CE452E0119249
:102EF0001192D9011D921D929D01DA011D921D9220
:102F0000AD01B2E0E838FB0791F71092D2031092BE
:102F1000D1031092D4031092D3031092D6031092CF
:102F2000D5031092D8031092D7031092DA031092AF
:102F3000D9038B8F0E943D1291E09093F8028B8D04
:102F4000C82ED12CE1E0CE1AD10896E09C9D8001DC
:102F50009D9D100D11240859194FD801ED92FC9236
:102F6000813039F4C7010E94480DF80113821282A2
:102F700007C080E09FEFD80113969C938E93129721
:102F800086E08C9DF0018D9DF00D1124E859F94FDC
:102F90001582148260919A0770919B07625E7F4F41
:102FA000CE0101960E944C0A8B819C81AD81BE812D
:102FB0008093960790939707A0939807B0939907EB
:102FC00088E092E09A8389831B821C821D821E8284
:102FD00044E050E0BE016D5F7F4F8FE090E00E94C3
:102FE000C30C8E818093630380937E0510927F05CE
:102FF00062E082E00E940D0B62E083E00E940D0B14
:1030000060E087E00E940D0B61E084E00E940D0B00
:1030100061E085E00E940D0B61E086E00E940D0BEF
:1030200082E280934E0583E08093660581E1809380
:10303000500583E18093510584E080933605B8EE16
:103040008B2EB3E09B2E1FE6212E312C09E0402E63
:10305000512C88ED94E09DE2C92EC80ECF8A88EDF0
:1030600095E02DE2D22ED80EDA8E0E94830B672BCC
:10307000682B692B09F06AC60E94830B62307105C8
:103080008105910508F062C63DC00E94830B6093E4
:103090000D0670930E0680930F069093100662E261
:1030A00072E080913D0690913E060E94A7116AE26F
:1030B00072E080913D0690913E060E94A7110E9409
:1030C000830BAB01BC012AE080913D0690913E0646
:1030D0000E94BC116CE272E080913D0690913E0628
:1030E0000E94A71162E070E080E090E00E94490B2E
:1030F0006AE070E080E090E00E94490B8091110648
:1031000081117DC60E94830B00910806109109066B
:1031100020910A0630910B06DC01CB01801B910B3C
:10312000A20BB30B0B97A105B10508F4E1C50E94F2
:10313000830B609308067093090680930A069093A8
:103140000B0680910606909107060196B4010E9435
:103150006923909307068093060665E070E00E945D
:103160006923892B09F060C182E00E94B40A892B8F
:1031700059F480916603811109C081E08093660350
:1031800080E18093360502C01092660383E00E94BE
:10319000B40A892B59F480916703811109C081E039
:1031A0008093670382E18093360502C01092670323
:1031B00087E00E94B40A90916B03882339F09B7FCB
:1031C00071F482E08093390585E007C0992311F0FE
:1031D000953029F484E08093390580936B038091C6
:1031E0003605883079F480916605813011F0883099
:1031F00011F482E005C0823011F08031D1F781E016
:1032000080933605909136058FEF890F823050F10B
:10321000903131F09231B1F0943009F05AC037C09A
:1032200080916605833031F480911E05815C823087
:1032300028F42DC0883011F0803249F582E0809367
:1032400066053EC080916605833031F480911E058D
:10325000815C823028F41BC0803111F08032B9F4D7
:1032600081E0EDCF809166059230C1F4833031F476
:1032700080911E05815C823008F70BC08830F1F226
:103280008032E1F2813029F482EC80931E0583E0E4
:10329000D6CF80911E05803C99F4D0CF833031F495
:1032A00080911E05815C8230D8F606C08031C1F263
:1032B0008032B1F2823041F380911E05803C81F270
:1032C00080911E05815C823070F182EB80931E0537
:1032D00025C080916605943129F4823071F08830E0
:1032E00039F40BC0813031F480911E05803AD9F455
:1032F00088E012C0963109F4F6C5823031F480912D
:103300001E05803A81F480E107C0833061F480912A
:103310001E05803A41F480E28093660510923605DE
:1033200081E080931C0190913805209168059133CC
:1033300050F081E0213009F480E021E0209368051D
:103340009093200518C0943021F08091200580339F
:1033500049F481E0211101C080E0109268051092CB
:10336000200509C0923061F481E0213009F480E049
:1033700091E0909368051092380581110EC010C03D
:10338000913071F4213019F41092680504C02111B4
:1033900002C0909368051092380581E080931C016B
:1033A00080913905823051F481E090916905913026
:1033B00009F480E091E0909369050AC0843079F4C3
:1033C00081E090916905911101C080E0109269053A
:1033D00010923905882319F081E080931C018091B7
:1033E0006805813011F461E001C060E086E00E9470
:1033F000DD0A80916605823011F461E001C060E071
:1034000084E00E94DD0A80916605813011F461E05C
:1034100001C060E085E00E94DD0A8091690581308D
:1034200019F484E080933605209106063091070652
:10343000C90163E370E00E946923892B89F48091BC
:1034400066059FEF980F923010F492E005C09091BE
:103450000E05891719F094E09093380580930E05B6
:10346000C901B1010E946923892B49F490911E057D
:103470008FE5890F823218F4915090931E05C9018F
:1034800063E070E00E9469235C01892B09F035C379
:103490008091D805811103C08FEF8093D80580916A
:1034A0001C04882329F0815080931C04811104C0DE
:1034B0000E949F0D80931C0480911C04882309F4B2
:1034C00097C280918F02813009F043C2C0908C0274
:1034D000D12CC114D10409F43AC20E9466038C01B4
:1034E00080E095E00E94F50C8770833009F442C0BB
:1034F000843009F46FC0823009F09FC028E030E0CA
:10350000AE014F5F5F4FB80181E00E948913B8019F
:10351000685F7F4F8981809388028A8180938902C6
:103520008B8180938A028C8180938B028D8190E0C5
:10353000982F88272E81820F911D90938E02809361
:103540008D02EF80F12CFE2CEE248885E80EF11C14
:103550008B010E0D1F1DCE14DF0408F063C0960111
:103560004EED53E081E00E948913F601EE19FF0948
:103570007F015EC026E030E0AE014F5F5F4FB801D3
:1035800081E00E948913B8016A5F7F4F898180932F
:1035900088028A81809389028B8180938A028C8140
:1035A00080938B02ED80F12CFE2CEE248E81E80EB0
:1035B000F11C8B010E0D1F1DCE14DF0498F5960132
:1035C0004EED53E081E00E94891396012E193F09C8
:1035D00079012EC022E030E0AE014F5F5F4FB801AD
:1035E00081E00E948913B8016E5F7F4FEA80F12C61
:1035F00032E0E31AF108898190E0982F8827E80EDD
:10360000F91E8B010E0D1F1DCE14DF0458F4960118
:103610004EED53E081E00E948913A6014E195F0927
:103620007A0106C097014EED53E081E00E948913B4
:10363000B80181E00E94A00302C0E12CF12C60E4FB
:1036400070E081E00E940512EF2809F480C120910A
:10365000E3033091E403C901882701978F3F944623
:1036600008F042C0ECEBF6E080E041915191421746
:10367000530769F0452B59F08F5F8530B1F7809182
:10368000DB0390E0019665E070E00E947D2380936B
:10369000DB0390E0FC01EE0FFF1FE454F94F408183
:1036A00051814217530711F031832083FC01EE0F43
:1036B000FF1FEE0FFF1FE855F94F40918802509110
:1036C000890260918A0270918B02408351836283E8
:1036D0007383880F991FFC01E256F94F80918D0288
:1036E00090918E02918380831091DE03115010938C
:1036F000DC03412F50E06FED73E08EED93E00E940C
:10370000B023112309F423C18EED93E09093990225
:10371000809398021091DE03109390028091DF0352
:1037200080939102C090E103D12CDC2CCC248091B9
:10373000E003C82AD0929702C0929602E090E30379
:10374000F12CFE2CEE248091E203E82AF0929502FF
:10375000E092940280918B0290919106891B89835B
:1037600080918A0290919006891B8A8369807A8071
:1037700070929302609292026114710409F44FC036
:103780006E147F0409F44BC0C7010E94080C482F37
:1037900050E04150510996E0949FF001959FF00D43
:1037A0001124E859F94F228133818130C1F121156B
:1037B000310511F420E03FEF440F551FFA01EE529E
:1037C000FE4F808191812E213F21892B21F4A4E796
:1037D000B2E0FD010AC0C901816068167906B9F737
:1037E0001EC062E0E838F60731F0819191918217AE
:1037F0009307B9F714C0A5018D919D917FEFA71A8A
:10380000B70A892BC1F7440F551FFA01EC58FD4F39
:1038100031832083FA01E05AFD4F7182608281E09A
:103820008093DD0310928F02809168069091690663
:103830008C159D05B9F08FEFC8168DEFD806E9F409
:10384000C7018150914F8F3F9B4060F4E1EDF3E061
:1038500081919191E816F90629F0B3E0EB3DFB0761
:10386000B9F777C0412F50E04650510964EE73E03C
:103870008EED93E00E94B0234DC0EFEFCE16DE0632
:1038800039F0FFEFCF16FEEFDF0609F047C006C0A4
:103890008FEF8093E0038EEF8093E103E114F10456
:1038A00049F4C7018150914F8F3F9B4038F5E1EDBE
:1038B000F3E01FC0A2EDCA2EA1E0DA2E80E0D6010F
:1038C0002D913D916D0101E0080F232B51F08D7F6B
:1038D00041F0212F4EED53E0602F8FEF9FEF0E94BC
:1038E000EB22802F053059F7DCCFB3E0EB3DFB072F
:1038F00081F181919191E816F906B9F7412F50E0D5
:103900004650510964EE73E08EED93E00E94B023BF
:10391000109190021650109390021CC0AE01475FA8
:103920005F4FBE016F5F7F4FC6010E94200C69850B
:10393000613079F0212F4EED53E089819A810E9408
:10394000EB2211E0811101C010E0119503C010922B
:103950008F0210E011501E3F08F04AC08091DD0335
:1039600090E001972BE0289FF001299FF00D112492
:10397000E157FD4FC580D6808EED93E090932304F0
:10398000809322041091DE0310931D04A090E003A5
:10399000B12CBA2CAA248091DF03A82AB0921F046C
:1039A000A0921E042091E103209320040091E203E1
:1039B00000932104812F8079803151F4402F50E011
:1039C00063EE73E08EED93E02B8F0E94B0232B8D7E
:1039D000EAE6F1E0812F90E04191519148175907B3
:1039E00029F031E0EE3BF307B9F702C011117FC2B5
:1039F00080911C01813009F080C0E12CF12C612CF8
:103A0000712CC12CD12C5601AA0CBB1CF501E95418
:103A1000FC4F80819181009709F444C081157FEFAC
:103A2000970709F43FC0F601E355FC4F208125308C
:103A3000A9F4F601E157FC4F2081422F50E0DA0152
:103A4000A15FBA4F7D01F501E756FC4F40815181DE
:103A5000F601EB57FC4F008165E111C0213299F46A
:103A6000F501E756FC4F40815181E6E6EE2EE5E098
:103A7000FE2E08E1F601E157FC4F208161E30E9430
:103A8000A70EE82EF12CE114F10421F0BFEFCB1AC0
:103A9000DB0A2AC0EFEF6E1A7E0AF4E06F1671049B
:103AA00028F424C02FEFC21AD20A1EC0F501E9542F
:103AB000FC4F808191810E94080C86010F5F1F4F8F
:103AC000813089F439E0C316D10469F0A2014C19A0
:103AD0005D09C801880F991FBC0169547C4F8B5444
:103AE0009C4F0E94B0236801612C712C4AE0C416DF
:103AF000D10408F488CF10921C01809106069091A1
:103B00000706B1010E946923892B09F086C08091C4
:103B10001901E82FF0E0E852FA4F9081911102C0AC
:103B200095E29083823020F0809105058111BEC11D
:103B3000109119011D3208F06DC0E12FF0E09F01D6
:103B4000220F331FD901A158BA4F8C9190E0982FC2
:103B50008827D901A258BA4F4C91842B009709F4B9
:103B600059C010920505BF0168527A4F6B01D90107
:103B7000A258BB4F8D939C93DF01AF5ABB4F2C9142
:103B8000222319F02FEFDB012C939F0128523B4F8A
:103B90005901EC5DFB4F2081222399F0D6018C91D5
:103BA000811102C082E006C08F3A10F4805B01C030
:103BB0008FEFD6018C93D6018C91D5018C93108216
:103BC00025C0F501208121111EC0D6012C912D3078
:103BD000B8F0E12CF12C08E127E540E050E065E089
:103BE0000E94A70E882341F0F60180818C508083CB
:103BF0008FEFD5018C930AC085E2F501808306C062
:103C0000D6011C9203C02150F50120831F5F109341
:103C1000190103C081E080931901809106069091FB
:103C2000070663ED70E00E946923892B09F08BC0C1
:103C30003091C602332309F486C020911B01822FE4
:103C400090E0880F991FFC01E158FA4F4081FC0178
:103C5000E258FA4F808190911A01992341F09150D6
:103C600090931A013D3281F090E0942B1EC02F5F9B
:103C700020931B0110920705109206050E94000C6C
:103C800080E280931A015FC081E080931B01109253
:103C90000705109206050E94000C8091810590E0B6
:103CA000982F882720918005822B009791F02091F2
:103CB0000605309107058217930709F4FBC0E12C34
:103CC000F12C08E12FE340E050E062E20E94A70EF1
:103CD0003AC08091C602882319F00E94000CF9CFE7
:103CE00081E080931B0110920705109206052BC0FE
:103CF0000E94830B00910A0510910B0520910C0581
:103D000030910D05DC01CB01801B910BA20BB30B95
:103D100081319742A105B105B0F00E94830B6093F9
:103D20000A0570930B0580930C0590930D05809107
:103D30000805909109050196B4010E9469239093AA
:103D40000905809308050E94A8098FC90E94830B6A
:103D500060934706709348068093490690934A06FD
:103D60000091430610914406209145063091460685
:103D7000601771078207930740F4609343067093BE
:103D800044068093450690934606009143061091A1
:103D9000440620914506309146066B017C01C01A0D
:103DA000D10AE20AF30A970186010A3F11052105AB
:103DB000310508F4A7C960934306709344068093C5
:103DC0004506909346060E94830B00910D061091C4
:103DD0000E0620910F0630911006DC01CB01801BEE
:103DE000910BA20BB30B8197A105B10508F04DC94A
:103DF00063E070E080E090E00E94490BE4CF8091A6
:103E00003D0690913E06DC01ED91FC910480F58128
:103E1000E02D0995892B99F380913D0690913E06FE
:103E2000DC01ED91FC910480F581E02D09951816D7
:103E300019060CF067C980913D0690913E06DC01A1
:103E4000ED91FC910680F781E02D09959927833645
:103E5000910551F08637910509F454C988359105CB
:103E6000D9F610921106D8CF65E372E080913D0635
:103E700090913E060E94A7112AE041E050E060E0E8
:103E800070E080913D0690913E060E94BC116CE36B
:103E900072E080913D0690913E060E94A71162E378
:103EA00070E080E090E00E94490B2CC981E0809393
:103EB00019013ECE80911B018D3220F48F5F8093DB
:103EC0001B010EC08091C602882319F00E94000CCD
:103ED000F9CF81E080931B0110920705109206052F
:103EE0000E94000C30CF803109F41DCA0CCA113079
:103EF00049F4822F90E0AC01415F5A4F7A01A5014D
:103F000061E10AC0123061F4822F90E0BC01615F70
:103F10007A4F7B01A50162E1C6010E94A70EEDCD9B
:103F2000123209F04DC080917F0590E0982F8827CC
:103F300030917E05832B892B39F4822F90E0DC01B0
:103F4000A15FBA4F7D012CC0D092D003C092CF03A5
:103F5000B092CE03A092CD032093CC030093CB0369
:103F6000013009F52223B1F030E0220F331FF901AF
:103F7000E158FA4F808190E0982F8827F901E258A4
:103F8000FA4F3081E12CF12C08E12FE340E050E0C2
:103F900062E237C25EE4E52E55E0F52E08E120E04E
:103FA000A50162E3B9CF8DE28093C60210920705A6
:103FB000109206054EE4E42E45E0F42E08E1F0CF21
:103FC000153019F0113209F05BC0E7EBF3E080E047
:103FD00090E0419151914C155D05E9F4AC01440F1D
:103FE000551FFA01E954FC4FD182C082FC01E35510
:103FF000FC4F1083FA01E756FC4FB182A082FC010E
:10400000E157FC4F2083BC016B577C4FFB010083C1
:10401000002329F027C0452B09F30196DACF11328E
:10402000C1F580917F0590E0982F882730917E051B
:10403000832B892B09F4BFC2EFE7F5E030E0408124
:1040400050E0542F4427CF010197DC018C91482B7D
:10405000452B29F032963D3211F03F5FF0CFFB0146
:104060003083A9C2153049F4822F90E0AC01415F42
:104070005A4F7A01A50165E14FCF113269F59BC214
:10408000173261F5002349F0322F10E0020F111DA5
:1040900018C0153049F3173209F5E8EDF4E0119234
:1040A0006F896E13FCCF211119C040911E045091ED
:1040B0001F0496E6E92E95E0F92E08E120E067E37B
:1040C0002BCF832F90E0801791076CF7FC01E8520B
:1040D000FB4F10823F5FF5CF1732B1F290911D0474
:1040E0009532F1F420912004822F90E0DC01A85257
:1040F000BA4F7D0140911E0450911F04009121048C
:1041000065E3C6010E94A70EE8EDF5E085E2908127
:10411000911101C080833196CA8CCE12F8CFEDCCBC
:10412000983051F440911E0450911F04E12CF12C61
:1041300000E020E068E1F0CE9632A9F520917F05FD
:1041400030E0322F222780917E05282B232B09F483
:1041500052C0EFE7F5E020E0808190E0982F8827BB
:10416000DF0111973C91832B892B29F032962D3258
:1041700011F02F5FF1CF209312018091210487303D
:1041800010F087E001C084E08093210440911E0478
:1041900050911F0412E1E12E11E0F12E0091210453
:1041A00020E066E3B9CE983231F520917F0530E00A
:1041B000322F222780917E05282B232BE1F080913E
:1041C000920680938103809193068093820380916D
:1041D0009406809383038091950680938403409195
:1041E0001E0450911F04A1E8EA2EA3E0FA2E04E079
:1041F00020E068E391CE892F807D803131F1892FD5
:10420000807F803529F1803709F077CC923701F52E
:10421000409121044A3008F0B0C190911E04809171
:104220001F0490930F0580931005809120048093C4
:1042300011054093120550E060912204709123040F
:1042400083E195E00E94B02398C1913309F455CCE5
:10425000943319F0913709F050C010921D0120914C
:104260002004822F8F7021F0AA24AA94B12C03C0BD
:10427000E0EFAE2EB12C0091210469E170E0601BEB
:104280007109E0902204F090230480E0C22ED12C2A
:104290003E2D482F50E046175707C4F4FA01E25B61
:1042A000FA4FE081F0E0EA21FB21EC15FD0561F415
:1042B0004A5C5A4FF7011E2F131B101728F4119157
:1042C000DA011D93AD01F7CF8F5FE3CF943389F40B
:1042D00080917F0590E0982F882730917E05832B71
:1042E000892B39F040E050E064E38FEF9FEF0E94AC
:1042F000A70E81E080931D0100CC963111F150F49E
:10430000943191F0953109F038C1EEE7F4E080E0A6
:1043100090E0A3C0923309F476C0933309F440C00F
:10432000973109F02AC124C04091210450E06091E6
:104330002204709123048091200490E0815F9A4FC1
:1043400037C180912104823008F0D7CBE09120045E
:1043500081EF8E0F803308F0D0CBF0E0E15FFA4FB1
:10436000A0912204B091230490818C91892316C0DE
:1043700080912104823008F0C0CBE091200481EFCD
:104380008E0F803308F0B9CBF0E0E15FFA4FA091D7
:104390002204B091230490818C91892B8083ADCB32
:1043A0002091200421110AC04091210450E0609125
:1043B00022047091230486E395E0FAC080917F0582
:1043C00090E0982F882730917E05832B892B09F464
:1043D00094CB30E0220F331FE0902204F0902304AE
:1043E000F901E158FA4F808190E0982F8827F90170
:1043F000E258FA4F30810091210427E240E050E07A
:1044000064E1832B8ACDE1E8F5E021E0808190E052
:10441000982F8827DF0111973C91832BC816D90666
:1044200029F4D0920705C092060504C02F5F32968A
:104430002D3261F78091CF039091D003009709F45A
:104440005CCBE0902204F09023044091CD03509186
:10445000CE030091210462E360CD219131912C15AE
:104460003D0511F00196F9CFFC01EC5DFB4F21E019
:10447000208380911E0490911F04009709F070C062
:10448000E1E8F5E011E0808190E0982F8827DF01D6
:1044900011972C91822BC816D90621F01F5F3296F6
:1044A0001D3289F76090220470902304C09021048B
:1044B000C98EA12CB12CC12CD12C9601220F331FF7
:1044C000A90149545C4F5E8B4D8BDA018D919C9113
:1044D0000097E9F08115BFEF9B07C9F0F901E75696
:1044E000FC4F408151817301098D212F61E30E94AE
:1044F000A70E882321F0EFEFCE1ADE0A29C0FFEFC6
:10450000AF1ABF0A24E0A216B10428F423C03FEF7B
:10451000C31AD30A1DC0AD89BE898D919C910E949A
:10452000080CF60131967F01813089F4F9E0CF164D
:10453000D10469F0A2014C195D09C701880F991FC8
:10454000BC0169547C4F8B549C4F0E94B02367017F
:10455000A12CB12C2AE0C216D10408F4AECFCDCAEA
:104560008A5C9A4F35E08E31930708F4C6CA45E05D
:104570008D34940799F090F0C0CA80911E049091F8
:104580001F048A5C9A4F55E08E31950708F4B5CA2E
:1045900065E08D34960711F008F0AFCA4091210410
:1045A000442309F4AACA50E06091220470912304C4
:1045B0000E94B023A2CAE8EDF4E011925F895E1375
:1045C000FCCF21118BCD36E6E32E35E0F32E08E14A
:1045D000A50161E3A1CCEF92FF920F931F93CF93BC
:1045E000DF9300D0CDB7DEB77C018A0186EC96E080
:1045F0002A8369830E949C0EE091CE06F091CF063B
:10460000118210821383028314822A8125831782E8
:1046100016826981613061F4622FC7010F900F909B
:10462000DF91CF911F910F91FF90EF900C94300F7D
:1046300080E00F900F90DF91CF911F910F91FF902D
:10464000EF900895E5EAF7E088E092E091838083B7
:104650001282138214821582E7EFF6E0138212822F
:1046600048EE53E060E070E04483558366837783CF
:1046700020EE31E03183208325EC30E0358724873C
:1046800024EC30E03787268720EC30E0318B208B1C
:1046900021EC30E0338B228B22EC30E0358B248B05
:1046A00026EC30E0378B268B118E128E138E148EF3
:1046B000ECE9F7E0918380831282138214821582E1
:1046C000E4E9F7E0918380831282138214821582D9
:1046D0000895AA1BBB1B51E107C0AA1FBB1FA61749
:1046E000B70710F0A61BB70B881F991F5A95A9F79B
:1046F00080959095BC01CD01089597FB072E16F487
:10470000009407D077FD09D00E94692307FC05D0EB
:104710003EF4909581959F4F0895709561957F4FD8
:104720000895692796276927782787277827089586
:10473000EE0FFF1F0590F491E02D099481E090E0C9
:10474000F8940C949124FB01DC0104C08D9101903C
:10475000801921F441505040C8F7881B990B0895E7
:104760006817790768F4FB01DC01E40FF51FA40F5B
:10477000B51F02C002900E9241505040D8F70895E4
:104780000C94C923FB01DC0101900D920020E1F79C
:104790000895FB01DC0102C001900D924150504090
:1047A000D8F708958F929F92AF92BF92CF92DF92E7
:1047B000EF92FF92CF93DF93EC01688179818A8138
:1047C0009B81611571058105910521F464E279ED04
:1047D0008BE597E02DE133EF41E050E00E9450245B
:1047E00049015A019B01AC01A7EAB1E40E946F2480
:1047F0006B017C01ACEEB4EFA50194010E947D2415
:10480000DC01CB018C0D9D1DAE1DBF1DB7FF03C08C
:104810000197A109B04888839983AA83BB83BC010F
:10482000CD019F77DF91CF91FF90EF90DF90CF90F8
:10483000BF90AF909F908F9008950E94D2230895CB
:104840008EE191E00E94D223089560931E0170933F
:104850001F0180932001909321010895A1E21A2E57
:10486000AA1BBB1BFD010DC0AA1FBB1FEE1FFF1F14
:10487000A217B307E407F50720F0A21BB30BE40B64
:10488000F50B661F771F881F991F1A9469F76095AB
:104890007095809590959B01AC01BD01CF01089565
:1048A000052E97FB1EF400940E94672457FD07D045
:1048B0000E942E2407FC03D04EF40C9467245095DC
:1048C0004095309521953F4F4F4F5F4F08959095FC
:1048D0008095709561957F4F8F4F9F4F08950E94EF
:1048E0008224A59F900DB49F900DA49F800D911DD3
:1048F00011240895B7FF0C946F240E946F24821B2B
:10490000930B0895A29FB001B39FC001A39F700DA8
:10491000811D1124911DB29F700D811D1124911DC7
:064920000895F894FFCF9A
:10492600C0A80101FFFFFF00C0A801001AA6496B3D
:104936000001002D180A273F57012001010101003F
:104946000000000000004A0A4A0A4A0A4A0A4A0ABD
:104956004A0A4A0A4A0A4A0A4A0A4A0A4A0A4A0AB1
:104966004A0A4A0A4A0A000000009E000102B400F0
:10497600FF007E038C00B40127014601FA058B0176
:10498600C903D300CC00BC00B8000100110002002E
:104996001200080018000900190005001500130090
:1049A60014001600170083008400850021003100E2
:1049B6002200320033003400250035002600360080
:1049C6002700370028003800290039002A003A005D
:1049D6002B002C002D002E002F007100720000000D
:1049E600006500AB00BC00CEFF64FFAAFFBBFFCC96
:1049F600FFDF0100000000000000000000000000D2
:104A06003F09050F0809E608FA08860900000000B4
:104A16004A0A050F4A0A4A0A4A0A4A0A00000000D8
:104A26004A0A050F00000000000A000000004A0ABA
:104A3600564D4450565F317C315F564D4450560DAD
:104A46000A00564D4450455F31007C005F564D4488
:104A560050450D0A00564D4450435F005F564D4485
:0C4A660050430D0A0057495A6E65740059
:00000001FF
